{
  "contractName": "PaymentContract",
  "abi": [
    {
      "inputs": [
        {
          "internalType": "uint256",
          "name": "_ownerFeePercent",
          "type": "uint256"
        },
        {
          "internalType": "address",
          "name": "_tokenContract",
          "type": "address"
        }
      ],
      "stateMutability": "nonpayable",
      "type": "constructor"
    },
    {
      "anonymous": false,
      "inputs": [
        {
          "indexed": true,
          "internalType": "address",
          "name": "owner",
          "type": "address"
        },
        {
          "indexed": true,
          "internalType": "address",
          "name": "spender",
          "type": "address"
        },
        {
          "indexed": false,
          "internalType": "uint256",
          "name": "allowance",
          "type": "uint256"
        }
      ],
      "name": "AllowanceChecked",
      "type": "event"
    },
    {
      "anonymous": false,
      "inputs": [
        {
          "indexed": true,
          "internalType": "address",
          "name": "user",
          "type": "address"
        },
        {
          "indexed": false,
          "internalType": "uint256",
          "name": "balance",
          "type": "uint256"
        }
      ],
      "name": "BalanceChecked",
      "type": "event"
    },
    {
      "anonymous": false,
      "inputs": [
        {
          "indexed": true,
          "internalType": "address",
          "name": "from",
          "type": "address"
        },
        {
          "indexed": true,
          "internalType": "address",
          "name": "to",
          "type": "address"
        },
        {
          "indexed": false,
          "internalType": "uint256",
          "name": "amount",
          "type": "uint256"
        },
        {
          "indexed": false,
          "internalType": "uint256",
          "name": "ownerFee",
          "type": "uint256"
        },
        {
          "indexed": false,
          "internalType": "uint256",
          "name": "timestamp",
          "type": "uint256"
        }
      ],
      "name": "PaymentMade",
      "type": "event"
    },
    {
      "inputs": [],
      "name": "owner",
      "outputs": [
        {
          "internalType": "address",
          "name": "",
          "type": "address"
        }
      ],
      "stateMutability": "view",
      "type": "function",
      "constant": true
    },
    {
      "inputs": [],
      "name": "ownerFeePercent",
      "outputs": [
        {
          "internalType": "uint256",
          "name": "",
          "type": "uint256"
        }
      ],
      "stateMutability": "view",
      "type": "function",
      "constant": true
    },
    {
      "inputs": [
        {
          "internalType": "uint256",
          "name": "",
          "type": "uint256"
        }
      ],
      "name": "paymentHistory",
      "outputs": [
        {
          "internalType": "address",
          "name": "from",
          "type": "address"
        },
        {
          "internalType": "address",
          "name": "to",
          "type": "address"
        },
        {
          "internalType": "uint256",
          "name": "amount",
          "type": "uint256"
        },
        {
          "internalType": "uint256",
          "name": "timestamp",
          "type": "uint256"
        }
      ],
      "stateMutability": "view",
      "type": "function",
      "constant": true
    },
    {
      "inputs": [],
      "name": "tokenContract",
      "outputs": [
        {
          "internalType": "contract IERC20",
          "name": "",
          "type": "address"
        }
      ],
      "stateMutability": "view",
      "type": "function",
      "constant": true
    },
    {
      "inputs": [
        {
          "internalType": "address",
          "name": "_to",
          "type": "address"
        },
        {
          "internalType": "uint256",
          "name": "_amount",
          "type": "uint256"
        }
      ],
      "name": "sendPayment",
      "outputs": [],
      "stateMutability": "nonpayable",
      "type": "function"
    },
    {
      "inputs": [
        {
          "internalType": "address",
          "name": "_account",
          "type": "address"
        }
      ],
      "name": "balance",
      "outputs": [
        {
          "internalType": "uint256",
          "name": "",
          "type": "uint256"
        }
      ],
      "stateMutability": "view",
      "type": "function",
      "constant": true
    },
    {
      "inputs": [
        {
          "internalType": "address",
          "name": "_owner",
          "type": "address"
        },
        {
          "internalType": "address",
          "name": "_spender",
          "type": "address"
        }
      ],
      "name": "checkAllowance",
      "outputs": [
        {
          "internalType": "uint256",
          "name": "",
          "type": "uint256"
        }
      ],
      "stateMutability": "view",
      "type": "function",
      "constant": true
    },
    {
      "inputs": [],
      "name": "getPaymentHistory",
      "outputs": [
        {
          "components": [
            {
              "internalType": "address",
              "name": "from",
              "type": "address"
            },
            {
              "internalType": "address",
              "name": "to",
              "type": "address"
            },
            {
              "internalType": "uint256",
              "name": "amount",
              "type": "uint256"
            },
            {
              "internalType": "uint256",
              "name": "timestamp",
              "type": "uint256"
            }
          ],
          "internalType": "struct PaymentContract.Payment[]",
          "name": "",
          "type": "tuple[]"
        }
      ],
      "stateMutability": "view",
      "type": "function",
      "constant": true
    }
  ],
  "bytecode": "0x6080604052348015600f57600080fd5b506040516107a23803806107a2833981016040819052602c916061565b6000805433600160a060020a03199182161790915560019290925560028054909216600160a060020a0391909116179055609c565b60008060408385031215607357600080fd5b82516020840151909250600160a060020a0381168114609157600080fd5b809150509250929050565b6106f7806100ab6000396000f3fe608060405234801561001057600080fd5b50600436106100a5576000357c010000000000000000000000000000000000000000000000000000000090048063935f4c1811610078578063935f4c1814610117578063a5e047b81461012c578063b651bb611461016a578063e3d670d71461017f57600080fd5b806355a373d6146100aa5780636998de35146100da5780638b099b23146100f15780638da5cb5b14610104575b600080fd5b6002546100bd90600160a060020a031681565b604051600160a060020a0390911681526020015b60405180910390f35b6100e360015481565b6040519081526020016100d1565b6100e36100ff3660046104df565b610192565b6000546100bd90600160a060020a031681565b61012a610125366004610512565b61022f565b005b61013f61013a36600461053c565b610366565b60408051600160a060020a0395861681529490931660208501529183015260608201526080016100d1565b6101726103ac565b6040516100d19190610555565b6100e361018d3660046105d0565b61043b565b6002546040517fdd62ed3e000000000000000000000000000000000000000000000000000000008152600160a060020a0384811660048301528381166024830152600092839291169063dd62ed3e90604401602060405180830381865afa158015610201573d6000803e3d6000fd5b505050506040513d601f19601f8201168201806040525081019061022591906105f2565b9150505b92915050565b6000811161029d576040517f08c379a000000000000000000000000000000000000000000000000000000000815260206004820181905260248201527f416d6f756e74206d7573742062652067726561746572207468616e207a65726f604482015260640160405180910390fd5b60006064600154836102af919061063a565b6102b99190610651565b905060006102c7828461068c565b6002546040517f23b872dd000000000000000000000000000000000000000000000000000000008152336004820152600160a060020a038781166024830152604482018490529293509116906323b872dd906064016020604051808303816000875af115801561033b573d6000803e3d6000fd5b505050506040513d601f19601f8201168201806040525081019061035f919061069f565b5050505050565b6003818154811061037657600080fd5b60009182526020909120600490910201805460018201546002830154600390930154600160a060020a0392831694509116919084565b60606003805480602002602001604051908101604052809291908181526020016000905b8282101561043257600084815260209081902060408051608081018252600486029092018054600160a060020a0390811684526001808301549091168486015260028201549284019290925260030154606083015290835290920191016103d0565b50505050905090565b6002546040517f70a08231000000000000000000000000000000000000000000000000000000008152600160a060020a03838116600483015260009216906370a0823190602401602060405180830381865afa15801561049f573d6000803e3d6000fd5b505050506040513d601f19601f8201168201806040525081019061022991906105f2565b8035600160a060020a03811681146104da57600080fd5b919050565b600080604083850312156104f257600080fd5b6104fb836104c3565b9150610509602084016104c3565b90509250929050565b6000806040838503121561052557600080fd5b61052e836104c3565b946020939093013593505050565b60006020828403121561054e57600080fd5b5035919050565b602080825282518282018190526000918401906040840190835b818110156105c5578351600160a060020a038151168452600160a060020a03602082015116602085015260408101516040850152606081015160608501525060808301925060208401935060018101905061056f565b509095945050505050565b6000602082840312156105e257600080fd5b6105eb826104c3565b9392505050565b60006020828403121561060457600080fd5b5051919050565b7f4e487b7100000000000000000000000000000000000000000000000000000000600052601160045260246000fd5b80820281158282048414176102295761022961060b565b600082610687577f4e487b7100000000000000000000000000000000000000000000000000000000600052601260045260246000fd5b500490565b818103818111156102295761022961060b565b6000602082840312156106b157600080fd5b815180151581146105eb57600080fdfea26469706673582212201d1140202bb5153e16e7e508a005b478cb6b18e5dfefeaf16d414396effbb0f064736f6c634300081b0033",
  "immutableReferences": {},
  "source": "// SPDX-License-Identifier: MIT\r\npragma solidity ^0.8.0;\r\n\r\ninterface IERC20 {\r\n    function transferFrom(address sender, address recipient, uint256 amount) external returns (bool);\r\n    function balanceOf(address account) external view returns (uint256);\r\n    function allowance(address owner, address spender) external view returns (uint256); // Allowance  \r\n}\r\n\r\ncontract PaymentContract {\r\n    struct Payment {\r\n        address from;\r\n        address to;\r\n        uint256 amount;\r\n        uint256 timestamp;\r\n    }\r\n\r\n    address public owner;\r\n    uint256 public ownerFeePercent;\r\n    IERC20 public tokenContract; // ERC20 token contract\r\n\r\n    Payment[] public paymentHistory;\r\n\r\n    event PaymentMade(address indexed from, address indexed to, uint256 amount, uint256 ownerFee, uint256 timestamp);\r\n    event BalanceChecked(address indexed user, uint256 balance);\r\n    event AllowanceChecked(address indexed owner, address indexed spender, uint256 allowance);\r\n\r\n    constructor(uint256 _ownerFeePercent, address _tokenContract) {\r\n        owner = msg.sender;\r\n        ownerFeePercent = _ownerFeePercent;\r\n        tokenContract = IERC20(_tokenContract); // Set the token contract\r\n    }\r\n\r\n    function sendPayment(address _to, uint256 _amount) external {\r\n        require(_amount > 0, \"Amount must be greater than zero\");\r\n\r\n        uint256 ownerFee = (_amount * ownerFeePercent) / 100;\r\n        uint256 recipientAmount = _amount - ownerFee;\r\n\r\n        // Transfer ERC20 tokens\r\n        tokenContract.transferFrom(msg.sender, _to, recipientAmount);\r\n        // tokenContract.transferFrom(msg.sender, owner, ownerFee);\r\n\r\n        // paymentHistory.push(Payment({\r\n        //     from: msg.sender,\r\n        //     to: _to,\r\n        //     amount: recipientAmount,\r\n        //     timestamp: block.timestamp\r\n        // }));\r\n\r\n        // emit PaymentMade(msg.sender, _to, recipientAmount, ownerFee, block.timestamp);\r\n    }\r\n\r\n    function balance(address _account) external view returns (uint256) {\r\n        return tokenContract.balanceOf(_account);\r\n    }\r\n\r\n    function checkAllowance(address _owner, address _spender) external view returns (uint256) {\r\n        uint256 allowedAmount = tokenContract.allowance(_owner, _spender);\r\n        return allowedAmount;\r\n    }\r\n\r\n    function getPaymentHistory() external view returns (Payment[] memory) {\r\n        return paymentHistory;\r\n    }\r\n}\r\n",
  "sourcePath": "C:\\Users\\SSAFY\\develop\\ddalkak\\server\\contract-service\\contracts\\contracts\\PaymentContract.sol",
  "compiler": {
    "name": "solc",
    "version": "0.8.27+commit.40a35a09.Emscripten.clang"
  },
  "schemaVersion": "3.4.16",
  "updatedAt": "2024-09-25T08:21:41.437Z",
  "networkType": "ethereum",
  "devdoc": {
    "kind": "dev",
    "methods": {},
    "version": 1
  },
  "userdoc": {
    "kind": "user",
    "methods": {},
    "version": 1
  }
}