{
  "contractName": "PaymentContract",
  "abi": [
    {
      "inputs": [
        {
          "internalType": "uint256",
          "name": "_ownerFeePercent",
          "type": "uint256"
        },
        {
          "internalType": "address",
          "name": "_tokenContract",
          "type": "address"
        }
      ],
      "stateMutability": "nonpayable",
      "type": "constructor"
    },
    {
      "anonymous": false,
      "inputs": [
        {
          "indexed": true,
          "internalType": "address",
          "name": "from",
          "type": "address"
        },
        {
          "indexed": true,
          "internalType": "address",
          "name": "to",
          "type": "address"
        },
        {
          "indexed": false,
          "internalType": "uint256",
          "name": "amount",
          "type": "uint256"
        },
        {
          "indexed": false,
          "internalType": "uint256",
          "name": "ownerFee",
          "type": "uint256"
        },
        {
          "indexed": false,
          "internalType": "uint256",
          "name": "timestamp",
          "type": "uint256"
        }
      ],
      "name": "PaymentMade",
      "type": "event"
    },
    {
      "inputs": [],
      "name": "owner",
      "outputs": [
        {
          "internalType": "address",
          "name": "",
          "type": "address"
        }
      ],
      "stateMutability": "view",
      "type": "function",
      "constant": true
    },
    {
      "inputs": [],
      "name": "ownerFeePercent",
      "outputs": [
        {
          "internalType": "uint256",
          "name": "",
          "type": "uint256"
        }
      ],
      "stateMutability": "view",
      "type": "function",
      "constant": true
    },
    {
      "inputs": [
        {
          "internalType": "uint256",
          "name": "",
          "type": "uint256"
        }
      ],
      "name": "paymentHistory",
      "outputs": [
        {
          "internalType": "address",
          "name": "from",
          "type": "address"
        },
        {
          "internalType": "address",
          "name": "to",
          "type": "address"
        },
        {
          "internalType": "uint256",
          "name": "amount",
          "type": "uint256"
        },
        {
          "internalType": "uint256",
          "name": "timestamp",
          "type": "uint256"
        }
      ],
      "stateMutability": "view",
      "type": "function",
      "constant": true
    },
    {
      "inputs": [],
      "name": "tokenContract",
      "outputs": [
        {
          "internalType": "contract IERC20",
          "name": "",
          "type": "address"
        }
      ],
      "stateMutability": "view",
      "type": "function",
      "constant": true
    },
    {
      "inputs": [
        {
          "internalType": "address",
          "name": "_to",
          "type": "address"
        },
        {
          "internalType": "uint256",
          "name": "_amount",
          "type": "uint256"
        }
      ],
      "name": "sendPayment",
      "outputs": [],
      "stateMutability": "nonpayable",
      "type": "function"
    },
    {
      "inputs": [],
      "name": "getPaymentHistory",
      "outputs": [
        {
          "components": [
            {
              "internalType": "address",
              "name": "from",
              "type": "address"
            },
            {
              "internalType": "address",
              "name": "to",
              "type": "address"
            },
            {
              "internalType": "uint256",
              "name": "amount",
              "type": "uint256"
            },
            {
              "internalType": "uint256",
              "name": "timestamp",
              "type": "uint256"
            }
          ],
          "internalType": "struct PaymentContract.Payment[]",
          "name": "",
          "type": "tuple[]"
        }
      ],
      "stateMutability": "view",
      "type": "function",
      "constant": true
    }
  ],
  "bytecode": "0x6080604052348015600f57600080fd5b5060405161087f38038061087f833981016040819052602c916061565b6000805433600160a060020a03199182161790915560019290925560028054909216600160a060020a0391909116179055609c565b60008060408385031215607357600080fd5b82516020840151909250600160a060020a0381168114609157600080fd5b809150509250929050565b6107d4806100ab6000396000f3fe608060405234801561001057600080fd5b506004361061007e577c0100000000000000000000000000000000000000000000000000000000600035046355a373d681146100835780636998de35146100b35780638da5cb5b146100ca578063935f4c18146100dd578063a5e047b8146100f2578063b651bb6114610130575b600080fd5b60025461009690600160a060020a031681565b604051600160a060020a0390911681526020015b60405180910390f35b6100bc60015481565b6040519081526020016100aa565b60005461009690600160a060020a031681565b6100f06100eb36600461060f565b610145565b005b610105610100366004610647565b61053a565b60408051600160a060020a0395861681529490931660208501529183015260608201526080016100aa565b610138610580565b6040516100aa9190610660565b600081116101b4576040517f08c379a000000000000000000000000000000000000000000000000000000000815260206004820181905260248201527f416d6f756e74206d7573742062652067726561746572207468616e207a65726f60448201526064015b60405180910390fd5b60006064600154836101c6919061070a565b6101d09190610727565b905060006101de8284610762565b6002546040517f23b872dd000000000000000000000000000000000000000000000000000000008152336004820152600160a060020a038781166024830152604482018490529293509116906323b872dd906064016020604051808303816000875af1158015610252573d6000803e3d6000fd5b505050506040513d601f19601f820116820180604052508101906102769190610775565b6102dc576040517f08c379a000000000000000000000000000000000000000000000000000000000815260206004820152601560248201527f546f6b656e207472616e73666572206661696c6564000000000000000000000060448201526064016101ab565b6002546000546040517f23b872dd000000000000000000000000000000000000000000000000000000008152336004820152600160a060020a039182166024820152604481018590529116906323b872dd906064016020604051808303816000875af1158015610350573d6000803e3d6000fd5b505050506040513d601f19601f820116820180604052508101906103749190610775565b6103da576040517f08c379a000000000000000000000000000000000000000000000000000000000815260206004820152601360248201527f466565207472616e73666572206661696c65640000000000000000000000000060448201526064016101ab565b6040805160808101825233808252600160a060020a0387811660208401818152848601878152426060870181815260038054600181018255600091909152975160049098027fc2575a0e9e593c00f959f8c92f12db2869c3395a3b0502d05e2516446f71f85b8101805499881673ffffffffffffffffffffffffffffffffffffffff199a8b1617905593517fc2575a0e9e593c00f959f8c92f12db2869c3395a3b0502d05e2516446f71f85c8501805491909716981697909717909455517fc2575a0e9e593c00f959f8c92f12db2869c3395a3b0502d05e2516446f71f85d82015593517fc2575a0e9e593c00f959f8c92f12db2869c3395a3b0502d05e2516446f71f85e909401939093559251919290917f73bc067f8d6bb15a01636f9b76c6daa98472621717a0788af90498d8bfe69eb09161052c91869188919283526020830191909152604082015260600190565b60405180910390a350505050565b6003818154811061054a57600080fd5b60009182526020909120600490910201805460018201546002830154600390930154600160a060020a0392831694509116919084565b60606003805480602002602001604051908101604052809291908181526020016000905b8282101561060657600084815260209081902060408051608081018252600486029092018054600160a060020a0390811684526001808301549091168486015260028201549284019290925260030154606083015290835290920191016105a4565b50505050905090565b6000806040838503121561062257600080fd5b8235600160a060020a038116811461063957600080fd5b946020939093013593505050565b60006020828403121561065957600080fd5b5035919050565b602080825282518282018190526000918401906040840190835b818110156106d0578351600160a060020a038151168452600160a060020a03602082015116602085015260408101516040850152606081015160608501525060808301925060208401935060018101905061067a565b509095945050505050565b7f4e487b7100000000000000000000000000000000000000000000000000000000600052601160045260246000fd5b8082028115828204841417610721576107216106db565b92915050565b60008261075d577f4e487b7100000000000000000000000000000000000000000000000000000000600052601260045260246000fd5b500490565b81810381811115610721576107216106db565b60006020828403121561078757600080fd5b8151801515811461079757600080fd5b939250505056fea264697066735822122035bddb14c5a101ce16b1ad9a509f98c6d04ca2b9ca722bb987571e1a6739df0764736f6c634300081b0033",
  "immutableReferences": {},
  "source": "// SPDX-License-Identifier: MIT\r\npragma solidity ^0.8.0;\r\n\r\ninterface IERC20 {\r\n    function transferFrom(address sender, address recipient, uint256 amount) external returns (bool);\r\n}\r\n\r\ncontract PaymentContract {\r\n    struct Payment {\r\n        address from;\r\n        address to;\r\n        uint256 amount;\r\n        uint256 timestamp;\r\n    }\r\n\r\n    address public owner;\r\n    uint256 public ownerFeePercent;\r\n    IERC20 public tokenContract; // ERC20  \r\n\r\n    Payment[] public paymentHistory;\r\n\r\n    event PaymentMade(address indexed from, address indexed to, uint256 amount, uint256 ownerFee, uint256 timestamp);\r\n\r\n    constructor(uint256 _ownerFeePercent, address _tokenContract) {\r\n        owner = msg.sender;\r\n        ownerFeePercent = _ownerFeePercent;\r\n        tokenContract = IERC20(_tokenContract); //   \r\n    }\r\n\r\n    function sendPayment(address _to, uint256 _amount) external {\r\n        require(_amount > 0, \"Amount must be greater than zero\");\r\n\r\n        uint256 ownerFee = (_amount * ownerFeePercent) / 100;\r\n        uint256 recipientAmount = _amount - ownerFee;\r\n\r\n        // ERC20  \r\n        require(tokenContract.transferFrom(msg.sender, _to, recipientAmount), \"Token transfer failed\");\r\n        require(tokenContract.transferFrom(msg.sender, owner, ownerFee), \"Fee transfer failed\");\r\n\r\n        paymentHistory.push(Payment({\r\n            from: msg.sender,\r\n            to: _to,\r\n            amount: recipientAmount,\r\n            timestamp: block.timestamp\r\n        }));\r\n\r\n        emit PaymentMade(msg.sender, _to, recipientAmount, ownerFee, block.timestamp);\r\n    }\r\n\r\n    function getPaymentHistory() external view returns (Payment[] memory) {\r\n        return paymentHistory;\r\n    }\r\n}",
  "sourcePath": "C:\\Users\\SSAFY\\develop\\ddalkak\\server\\contract-service\\contracts\\contracts\\PaymentContract.sol",
  "compiler": {
    "name": "solc",
    "version": "0.8.27+commit.40a35a09.Emscripten.clang"
  },
  "schemaVersion": "3.4.16",
  "updatedAt": "2024-09-24T05:54:32.610Z",
  "networkType": "ethereum",
  "devdoc": {
    "kind": "dev",
    "methods": {},
    "version": 1
  },
  "userdoc": {
    "kind": "user",
    "methods": {},
    "version": 1
  }
}