{
  "contractName": "PaymentContract",
  "abi": [
    {
      "inputs": [
        {
          "internalType": "uint256",
          "name": "_ownerFeePercent",
          "type": "uint256"
        },
        {
          "internalType": "address",
          "name": "_tokenContract",
          "type": "address"
        }
      ],
      "stateMutability": "nonpayable",
      "type": "constructor"
    },
    {
      "anonymous": false,
      "inputs": [
        {
          "indexed": true,
          "internalType": "address",
          "name": "owner",
          "type": "address"
        },
        {
          "indexed": true,
          "internalType": "address",
          "name": "spender",
          "type": "address"
        },
        {
          "indexed": false,
          "internalType": "uint256",
          "name": "allowance",
          "type": "uint256"
        }
      ],
      "name": "AllowanceChecked",
      "type": "event"
    },
    {
      "anonymous": false,
      "inputs": [
        {
          "indexed": true,
          "internalType": "address",
          "name": "user",
          "type": "address"
        },
        {
          "indexed": false,
          "internalType": "uint256",
          "name": "balance",
          "type": "uint256"
        }
      ],
      "name": "BalanceChecked",
      "type": "event"
    },
    {
      "anonymous": false,
      "inputs": [
        {
          "indexed": true,
          "internalType": "address",
          "name": "from",
          "type": "address"
        },
        {
          "indexed": true,
          "internalType": "address",
          "name": "to",
          "type": "address"
        },
        {
          "indexed": false,
          "internalType": "uint256",
          "name": "amount",
          "type": "uint256"
        },
        {
          "indexed": false,
          "internalType": "uint256",
          "name": "ownerFee",
          "type": "uint256"
        },
        {
          "indexed": false,
          "internalType": "uint256",
          "name": "timestamp",
          "type": "uint256"
        }
      ],
      "name": "PaymentMade",
      "type": "event"
    },
    {
      "inputs": [],
      "name": "owner",
      "outputs": [
        {
          "internalType": "address",
          "name": "",
          "type": "address"
        }
      ],
      "stateMutability": "view",
      "type": "function",
      "constant": true
    },
    {
      "inputs": [],
      "name": "ownerFeePercent",
      "outputs": [
        {
          "internalType": "uint256",
          "name": "",
          "type": "uint256"
        }
      ],
      "stateMutability": "view",
      "type": "function",
      "constant": true
    },
    {
      "inputs": [
        {
          "internalType": "uint256",
          "name": "",
          "type": "uint256"
        }
      ],
      "name": "paymentHistory",
      "outputs": [
        {
          "internalType": "address",
          "name": "from",
          "type": "address"
        },
        {
          "internalType": "address",
          "name": "to",
          "type": "address"
        },
        {
          "internalType": "uint256",
          "name": "amount",
          "type": "uint256"
        },
        {
          "internalType": "uint256",
          "name": "timestamp",
          "type": "uint256"
        }
      ],
      "stateMutability": "view",
      "type": "function",
      "constant": true
    },
    {
      "inputs": [],
      "name": "tokenContract",
      "outputs": [
        {
          "internalType": "contract IERC20",
          "name": "",
          "type": "address"
        }
      ],
      "stateMutability": "view",
      "type": "function",
      "constant": true
    },
    {
      "inputs": [
        {
          "internalType": "address",
          "name": "_to",
          "type": "address"
        },
        {
          "internalType": "uint256",
          "name": "_amount",
          "type": "uint256"
        }
      ],
      "name": "sendPayment",
      "outputs": [],
      "stateMutability": "nonpayable",
      "type": "function"
    },
    {
      "inputs": [
        {
          "internalType": "address",
          "name": "_account",
          "type": "address"
        }
      ],
      "name": "balance",
      "outputs": [
        {
          "internalType": "uint256",
          "name": "",
          "type": "uint256"
        }
      ],
      "stateMutability": "view",
      "type": "function",
      "constant": true
    },
    {
      "inputs": [
        {
          "internalType": "address",
          "name": "_owner",
          "type": "address"
        },
        {
          "internalType": "address",
          "name": "_spender",
          "type": "address"
        }
      ],
      "name": "checkAllowance",
      "outputs": [
        {
          "internalType": "uint256",
          "name": "",
          "type": "uint256"
        }
      ],
      "stateMutability": "view",
      "type": "function",
      "constant": true
    },
    {
      "inputs": [],
      "name": "getPaymentHistory",
      "outputs": [
        {
          "components": [
            {
              "internalType": "address",
              "name": "from",
              "type": "address"
            },
            {
              "internalType": "address",
              "name": "to",
              "type": "address"
            },
            {
              "internalType": "uint256",
              "name": "amount",
              "type": "uint256"
            },
            {
              "internalType": "uint256",
              "name": "timestamp",
              "type": "uint256"
            }
          ],
          "internalType": "struct PaymentContract.Payment[]",
          "name": "",
          "type": "tuple[]"
        }
      ],
      "stateMutability": "view",
      "type": "function",
      "constant": true
    }
  ],
  "bytecode": "0x6080604052348015600f57600080fd5b50604051610995380380610995833981016040819052602c916061565b6000805433600160a060020a03199182161790915560019290925560028054909216600160a060020a0391909116179055609c565b60008060408385031215607357600080fd5b82516020840151909250600160a060020a0381168114609157600080fd5b809150509250929050565b6108ea806100ab6000396000f3fe608060405234801561001057600080fd5b50600436106100a5576000357c010000000000000000000000000000000000000000000000000000000090048063935f4c1811610078578063935f4c1814610117578063a5e047b81461012c578063b651bb611461016a578063e3d670d71461017f57600080fd5b806355a373d6146100aa5780636998de35146100da5780638b099b23146100f15780638da5cb5b14610104575b600080fd5b6002546100bd90600160a060020a031681565b604051600160a060020a0390911681526020015b60405180910390f35b6100e360015481565b6040519081526020016100d1565b6100e36100ff3660046106d2565b610192565b6000546100bd90600160a060020a031681565b61012a610125366004610705565b61022f565b005b61013f61013a36600461072f565b610559565b60408051600160a060020a0395861681529490931660208501529183015260608201526080016100d1565b61017261059f565b6040516100d19190610748565b6100e361018d3660046107c3565b61062e565b6002546040517fdd62ed3e000000000000000000000000000000000000000000000000000000008152600160a060020a0384811660048301528381166024830152600092839291169063dd62ed3e90604401602060405180830381865afa158015610201573d6000803e3d6000fd5b505050506040513d601f19601f8201168201806040525081019061022591906107e5565b9150505b92915050565b6000811161029d576040517f08c379a000000000000000000000000000000000000000000000000000000000815260206004820181905260248201527f416d6f756e74206d7573742062652067726561746572207468616e207a65726f604482015260640160405180910390fd5b60006064600154836102af919061082d565b6102b99190610844565b905060006102c7828461087f565b6002546040517f23b872dd000000000000000000000000000000000000000000000000000000008152336004820152600160a060020a038781166024830152604482018490529293509116906323b872dd906064016020604051808303816000875af115801561033b573d6000803e3d6000fd5b505050506040513d601f19601f8201168201806040525081019061035f9190610892565b506002546000546040517f23b872dd000000000000000000000000000000000000000000000000000000008152336004820152600160a060020a039182166024820152604481018590529116906323b872dd906064016020604051808303816000875af11580156103d4573d6000803e3d6000fd5b505050506040513d601f19601f820116820180604052508101906103f89190610892565b506040805160808101825233808252600160a060020a0387811660208401818152848601878152426060870181815260038054600181018255600091909152975160049098027fc2575a0e9e593c00f959f8c92f12db2869c3395a3b0502d05e2516446f71f85b8101805499881673ffffffffffffffffffffffffffffffffffffffff199a8b1617905593517fc2575a0e9e593c00f959f8c92f12db2869c3395a3b0502d05e2516446f71f85c8501805491909716981697909717909455517fc2575a0e9e593c00f959f8c92f12db2869c3395a3b0502d05e2516446f71f85d82015593517fc2575a0e9e593c00f959f8c92f12db2869c3395a3b0502d05e2516446f71f85e909401939093559251919290917f73bc067f8d6bb15a01636f9b76c6daa98472621717a0788af90498d8bfe69eb09161054b91869188919283526020830191909152604082015260600190565b60405180910390a350505050565b6003818154811061056957600080fd5b60009182526020909120600490910201805460018201546002830154600390930154600160a060020a0392831694509116919084565b60606003805480602002602001604051908101604052809291908181526020016000905b8282101561062557600084815260209081902060408051608081018252600486029092018054600160a060020a0390811684526001808301549091168486015260028201549284019290925260030154606083015290835290920191016105c3565b50505050905090565b6002546040517f70a08231000000000000000000000000000000000000000000000000000000008152600160a060020a03838116600483015260009216906370a0823190602401602060405180830381865afa158015610692573d6000803e3d6000fd5b505050506040513d601f19601f8201168201806040525081019061022991906107e5565b8035600160a060020a03811681146106cd57600080fd5b919050565b600080604083850312156106e557600080fd5b6106ee836106b6565b91506106fc602084016106b6565b90509250929050565b6000806040838503121561071857600080fd5b610721836106b6565b946020939093013593505050565b60006020828403121561074157600080fd5b5035919050565b602080825282518282018190526000918401906040840190835b818110156107b8578351600160a060020a038151168452600160a060020a036020820151166020850152604081015160408501526060810151606085015250608083019250602084019350600181019050610762565b509095945050505050565b6000602082840312156107d557600080fd5b6107de826106b6565b9392505050565b6000602082840312156107f757600080fd5b5051919050565b7f4e487b7100000000000000000000000000000000000000000000000000000000600052601160045260246000fd5b8082028115828204841417610229576102296107fe565b60008261087a577f4e487b7100000000000000000000000000000000000000000000000000000000600052601260045260246000fd5b500490565b81810381811115610229576102296107fe565b6000602082840312156108a457600080fd5b815180151581146107de57600080fdfea26469706673582212202e065e7b9689c69d9acbf089e770b430105930cd3837342ae410bf4325eb415964736f6c634300081b0033",
  "immutableReferences": {},
  "source": "// SPDX-License-Identifier: MIT\npragma solidity ^0.8.0;\n\ninterface IERC20 {\n    function transferFrom(address sender, address recipient, uint256 amount) external returns (bool);\n    function balanceOf(address account) external view returns (uint256);\n    function allowance(address owner, address spender) external view returns (uint256); // Allowance  \n}\n\ncontract PaymentContract {\n    struct Payment {\n        address from;\n        address to;\n        uint256 amount;\n        uint256 timestamp;\n    }\n\n    address public owner;\n    uint256 public ownerFeePercent;\n    IERC20 public tokenContract; // ERC20 token contract\n\n    Payment[] public paymentHistory;\n\n    event PaymentMade(address indexed from, address indexed to, uint256 amount, uint256 ownerFee, uint256 timestamp);\n    event BalanceChecked(address indexed user, uint256 balance);\n    event AllowanceChecked(address indexed owner, address indexed spender, uint256 allowance);\n\n    constructor(uint256 _ownerFeePercent, address _tokenContract) {\n        owner = msg.sender;\n        ownerFeePercent = _ownerFeePercent;\n        tokenContract = IERC20(_tokenContract); // Set the token contract\n    }\n\n    function sendPayment(address _to, uint256 _amount) external {\n        require(_amount > 0, \"Amount must be greater than zero\");\n\n        uint256 ownerFee = (_amount * ownerFeePercent) / 100;\n        uint256 recipientAmount = _amount - ownerFee;\n\n        tokenContract.transferFrom(msg.sender, _to, recipientAmount);\n        tokenContract.transferFrom(msg.sender, owner, ownerFee);\n\n        paymentHistory.push(Payment({\n            from: msg.sender,\n            to: _to,\n            amount: recipientAmount,\n            timestamp: block.timestamp\n        }));\n\n        emit PaymentMade(msg.sender, _to, recipientAmount, ownerFee, block.timestamp);\n    }\n\n    function balance(address _account) external view returns (uint256) {\n        return tokenContract.balanceOf(_account);\n    }\n\n    function checkAllowance(address _owner, address _spender) external view returns (uint256) {\n        uint256 allowedAmount = tokenContract.allowance(_owner, _spender);\n        return allowedAmount;\n    }\n\n    function getPaymentHistory() external view returns (Payment[] memory) {\n        return paymentHistory;\n    }\n}\n",
  "sourcePath": "/Users/sunsuking/Developer/Projects/2024/ttalkak/server/contract-service/contracts/contracts/PaymentContract.sol",
  "compiler": {
    "name": "solc",
    "version": "0.8.27+commit.40a35a09.Emscripten.clang"
  },
  "schemaVersion": "3.4.16",
  "updatedAt": "2024-10-04T13:07:33.318Z",
  "networkType": "ethereum",
  "devdoc": {
    "kind": "dev",
    "methods": {},
    "version": 1
  },
  "userdoc": {
    "kind": "user",
    "methods": {},
    "version": 1
  }
}