{
  "contractName": "PaymentContract",
  "abi": [
    {
      "inputs": [
        {
          "internalType": "uint256",
          "name": "_ownerFeePercent",
          "type": "uint256"
        },
        {
          "internalType": "address",
          "name": "_tokenContract",
          "type": "address"
        }
      ],
      "stateMutability": "nonpayable",
      "type": "constructor"
    },
    {
      "anonymous": false,
      "inputs": [
        {
          "indexed": true,
          "internalType": "address",
          "name": "owner",
          "type": "address"
        },
        {
          "indexed": true,
          "internalType": "address",
          "name": "spender",
          "type": "address"
        },
        {
          "indexed": false,
          "internalType": "uint256",
          "name": "allowance",
          "type": "uint256"
        }
      ],
      "name": "AllowanceChecked",
      "type": "event"
    },
    {
      "anonymous": false,
      "inputs": [
        {
          "indexed": true,
          "internalType": "address",
          "name": "user",
          "type": "address"
        },
        {
          "indexed": false,
          "internalType": "uint256",
          "name": "balance",
          "type": "uint256"
        }
      ],
      "name": "BalanceChecked",
      "type": "event"
    },
    {
      "anonymous": false,
      "inputs": [
        {
          "indexed": true,
          "internalType": "address",
          "name": "from",
          "type": "address"
        },
        {
          "indexed": true,
          "internalType": "address",
          "name": "to",
          "type": "address"
        },
        {
          "indexed": false,
          "internalType": "uint256",
          "name": "amount",
          "type": "uint256"
        },
        {
          "indexed": false,
          "internalType": "uint256",
          "name": "ownerFee",
          "type": "uint256"
        },
        {
          "indexed": false,
          "internalType": "uint256",
          "name": "timestamp",
          "type": "uint256"
        }
      ],
      "name": "PaymentMade",
      "type": "event"
    },
    {
      "inputs": [],
      "name": "owner",
      "outputs": [
        {
          "internalType": "address",
          "name": "",
          "type": "address"
        }
      ],
      "stateMutability": "view",
      "type": "function",
      "constant": true
    },
    {
      "inputs": [],
      "name": "ownerFeePercent",
      "outputs": [
        {
          "internalType": "uint256",
          "name": "",
          "type": "uint256"
        }
      ],
      "stateMutability": "view",
      "type": "function",
      "constant": true
    },
    {
      "inputs": [
        {
          "internalType": "uint256",
          "name": "",
          "type": "uint256"
        }
      ],
      "name": "paymentHistory",
      "outputs": [
        {
          "internalType": "address",
          "name": "from",
          "type": "address"
        },
        {
          "internalType": "address",
          "name": "to",
          "type": "address"
        },
        {
          "internalType": "uint256",
          "name": "amount",
          "type": "uint256"
        },
        {
          "internalType": "uint256",
          "name": "timestamp",
          "type": "uint256"
        }
      ],
      "stateMutability": "view",
      "type": "function",
      "constant": true
    },
    {
      "inputs": [],
      "name": "tokenContract",
      "outputs": [
        {
          "internalType": "contract IERC20",
          "name": "",
          "type": "address"
        }
      ],
      "stateMutability": "view",
      "type": "function",
      "constant": true
    },
    {
      "inputs": [
        {
          "internalType": "address",
          "name": "_from",
          "type": "address"
        },
        {
          "internalType": "address",
          "name": "_to",
          "type": "address"
        },
        {
          "internalType": "uint256",
          "name": "_amount",
          "type": "uint256"
        }
      ],
      "name": "sendPayment",
      "outputs": [],
      "stateMutability": "nonpayable",
      "type": "function"
    },
    {
      "inputs": [
        {
          "internalType": "address",
          "name": "_owner",
          "type": "address"
        },
        {
          "internalType": "address",
          "name": "_spender",
          "type": "address"
        },
        {
          "internalType": "uint256",
          "name": "_amount",
          "type": "uint256"
        }
      ],
      "name": "approve",
      "outputs": [],
      "stateMutability": "nonpayable",
      "type": "function"
    },
    {
      "inputs": [
        {
          "internalType": "address",
          "name": "_from",
          "type": "address"
        },
        {
          "internalType": "address",
          "name": "_to",
          "type": "address"
        },
        {
          "internalType": "uint256",
          "name": "_amount",
          "type": "uint256"
        }
      ],
      "name": "transfer",
      "outputs": [],
      "stateMutability": "nonpayable",
      "type": "function"
    },
    {
      "inputs": [
        {
          "internalType": "address",
          "name": "_account",
          "type": "address"
        }
      ],
      "name": "balance",
      "outputs": [
        {
          "internalType": "uint256",
          "name": "",
          "type": "uint256"
        }
      ],
      "stateMutability": "view",
      "type": "function",
      "constant": true
    },
    {
      "inputs": [
        {
          "internalType": "address",
          "name": "_owner",
          "type": "address"
        },
        {
          "internalType": "address",
          "name": "_spender",
          "type": "address"
        }
      ],
      "name": "checkAllowance",
      "outputs": [
        {
          "internalType": "uint256",
          "name": "",
          "type": "uint256"
        }
      ],
      "stateMutability": "view",
      "type": "function",
      "constant": true
    },
    {
      "inputs": [],
      "name": "getPaymentHistory",
      "outputs": [
        {
          "components": [
            {
              "internalType": "address",
              "name": "from",
              "type": "address"
            },
            {
              "internalType": "address",
              "name": "to",
              "type": "address"
            },
            {
              "internalType": "uint256",
              "name": "amount",
              "type": "uint256"
            },
            {
              "internalType": "uint256",
              "name": "timestamp",
              "type": "uint256"
            }
          ],
          "internalType": "struct PaymentContract.Payment[]",
          "name": "",
          "type": "tuple[]"
        }
      ],
      "stateMutability": "view",
      "type": "function",
      "constant": true
    }
  ],
  "bytecode": "0x6080604052348015600f57600080fd5b506040516108ed3803806108ed833981016040819052602c916061565b6000805433600160a060020a03199182161790915560019290925560028054909216600160a060020a0391909116179055609c565b60008060408385031215607357600080fd5b82516020840151909250600160a060020a0381168114609157600080fd5b809150509250929050565b610842806100ab6000396000f3fe608060405234801561001057600080fd5b50600436106100bb576000357c010000000000000000000000000000000000000000000000000000000090048063a5e047b811610083578063a5e047b814610142578063b651bb6114610180578063beabacc814610195578063e1f21c67146101a8578063e3d670d7146101bb57600080fd5b8063395801e7146100c057806355a373d6146100d55780636998de35146101055780638b099b231461011c5780638da5cb5b1461012f575b600080fd5b6100d36100ce366004610617565b6101ce565b005b6002546100e890600160a060020a031681565b604051600160a060020a0390911681526020015b60405180910390f35b61010e60015481565b6040519081526020016100fc565b61010e61012a366004610654565b610308565b6000546100e890600160a060020a031681565b610155610150366004610687565b6103a5565b60408051600160a060020a0395861681529490931660208501529183015260608201526080016100fc565b6101886103eb565b6040516100fc91906106a0565b6100d36101a3366004610617565b61047a565b6100d36101b6366004610617565b610519565b61010e6101c936600461071b565b610573565b6000811161023c576040517f08c379a000000000000000000000000000000000000000000000000000000000815260206004820181905260248201527f416d6f756e74206d7573742062652067726561746572207468616e207a65726f604482015260640160405180910390fd5b600060646001548361024e919061076c565b6102589190610783565b9050600061026682846107be565b6002546040517f23b872dd000000000000000000000000000000000000000000000000000000008152600160a060020a0388811660048301528781166024830152604482018490529293509116906323b872dd906064016020604051808303816000875af11580156102dc573d6000803e3d6000fd5b505050506040513d601f19601f8201168201806040525081019061030091906107d1565b505050505050565b6002546040517fdd62ed3e000000000000000000000000000000000000000000000000000000008152600160a060020a0384811660048301528381166024830152600092839291169063dd62ed3e90604401602060405180830381865afa158015610377573d6000803e3d6000fd5b505050506040513d601f19601f8201168201806040525081019061039b91906107f3565b9150505b92915050565b600381815481106103b557600080fd5b60009182526020909120600490910201805460018201546002830154600390930154600160a060020a0392831694509116919084565b60606003805480602002602001604051908101604052809291908181526020016000905b8282101561047157600084815260209081902060408051608081018252600486029092018054600160a060020a03908116845260018083015490911684860152600282015492840192909252600301546060830152908352909201910161040f565b50505050905090565b6002546040517f23b872dd000000000000000000000000000000000000000000000000000000008152600160a060020a038581166004830152848116602483015260448201849052909116906323b872dd906064015b6020604051808303816000875af11580156104ef573d6000803e3d6000fd5b505050506040513d601f19601f8201168201806040525081019061051391906107d1565b50505050565b6002546040517f104e81ff000000000000000000000000000000000000000000000000000000008152600160a060020a0385811660048301528481166024830152604482018490529091169063104e81ff906064016104d0565b6002546040517f70a08231000000000000000000000000000000000000000000000000000000008152600160a060020a03838116600483015260009216906370a0823190602401602060405180830381865afa1580156105d7573d6000803e3d6000fd5b505050506040513d601f19601f8201168201806040525081019061039f91906107f3565b8035600160a060020a038116811461061257600080fd5b919050565b60008060006060848603121561062c57600080fd5b610635846105fb565b9250610643602085016105fb565b929592945050506040919091013590565b6000806040838503121561066757600080fd5b610670836105fb565b915061067e602084016105fb565b90509250929050565b60006020828403121561069957600080fd5b5035919050565b602080825282518282018190526000918401906040840190835b81811015610710578351600160a060020a038151168452600160a060020a0360208201511660208501526040810151604085015260608101516060850152506080830192506020840193506001810190506106ba565b509095945050505050565b60006020828403121561072d57600080fd5b610736826105fb565b9392505050565b7f4e487b7100000000000000000000000000000000000000000000000000000000600052601160045260246000fd5b808202811582820484141761039f5761039f61073d565b6000826107b9577f4e487b7100000000000000000000000000000000000000000000000000000000600052601260045260246000fd5b500490565b8181038181111561039f5761039f61073d565b6000602082840312156107e357600080fd5b8151801515811461073657600080fd5b60006020828403121561080557600080fd5b505191905056fea26469706673582212200277452b8b8170f9e65864c1015f16ee52a365d4cb120c767ee712575795554464736f6c634300081c0033",
  "immutableReferences": {},
  "source": "// SPDX-License-Identifier: MIT\npragma solidity ^0.8.0;\n\ninterface IERC20 {\n    function _transfer(address sender, address recipient, uint256 amount) external returns (bool);\n    function transfer(address recipient, uint256 amount) external returns (bool);\n    function transferFrom(address sender, address recipient, uint256 amount) external returns (bool);\n    function balanceOf(address account) external view returns (uint256);\n    function allowance(address owner, address spender) external view returns (uint256); // Allowance  \n    function _approve(address owner, address spender, uint256 amount) external returns (bool);\n    function approve(address spender, uint256 amount) external returns (bool);\n}\n\ncontract PaymentContract {\n    struct Payment {\n        address from;\n        address to;\n        uint256 amount;\n        uint256 timestamp;\n    }\n\n    address public owner;\n    uint256 public ownerFeePercent;\n    IERC20 public tokenContract; // ERC20 token contract\n\n    Payment[] public paymentHistory;\n\n    event PaymentMade(address indexed from, address indexed to, uint256 amount, uint256 ownerFee, uint256 timestamp);\n    event BalanceChecked(address indexed user, uint256 balance);\n    event AllowanceChecked(address indexed owner, address indexed spender, uint256 allowance);\n\n    constructor(uint256 _ownerFeePercent, address _tokenContract) {\n        owner = msg.sender;\n        ownerFeePercent = _ownerFeePercent;\n        tokenContract = IERC20(_tokenContract);\n    }\n\n    function sendPayment(address _from, address _to, uint256 _amount) external {\n        require(_amount > 0, \"Amount must be greater than zero\");\n\n        uint256 ownerFee = (_amount * ownerFeePercent) / 100;\n        uint256 recipientAmount = _amount - ownerFee;\n\n        tokenContract.transferFrom(_from, _to, recipientAmount);\n        // tokenContract.transferFrom(_from, owner, ownerFee);\n    }\n\n    function approve(address _owner, address _spender, uint256 _amount) external {\n        tokenContract._approve(_owner, _spender, _amount);\n    }\n\n    function transfer(address _from, address _to, uint256 _amount) external {\n        tokenContract.transferFrom(_from, _to, _amount);\n    }\n\n    function balance(address _account) external view returns (uint256) {\n        return tokenContract.balanceOf(_account);\n    }\n\n    function checkAllowance(address _owner, address _spender) external view returns (uint256) {\n        uint256 allowedAmount = tokenContract.allowance(_owner, _spender);\n        return allowedAmount;\n    }\n\n    function getPaymentHistory() external view returns (Payment[] memory) {\n        return paymentHistory;\n    }\n}\n",
  "sourcePath": "/Users/sunsuking/Developer/Projects/2024/ttalkak/server/contract-service/contracts/contracts/PaymentContract.sol",
  "compiler": {
    "name": "solc",
    "version": "0.8.28+commit.7893614a.Emscripten.clang"
  },
  "schemaVersion": "3.4.16",
  "updatedAt": "2024-10-10T00:01:08.330Z",
  "networkType": "ethereum",
  "devdoc": {
    "kind": "dev",
    "methods": {},
    "version": 1
  },
  "userdoc": {
    "kind": "user",
    "methods": {},
    "version": 1
  }
}