{
  "contractName": "PaymentContract",
  "abi": [
    {
      "inputs": [
        {
          "internalType": "uint256",
          "name": "_ownerFeePercent",
          "type": "uint256"
        }
      ],
      "stateMutability": "nonpayable",
      "type": "constructor"
    },
    {
      "anonymous": false,
      "inputs": [
        {
          "indexed": true,
          "internalType": "address",
          "name": "from",
          "type": "address"
        },
        {
          "indexed": true,
          "internalType": "address",
          "name": "to",
          "type": "address"
        },
        {
          "indexed": false,
          "internalType": "uint256",
          "name": "amount",
          "type": "uint256"
        },
        {
          "indexed": false,
          "internalType": "uint256",
          "name": "ownerFee",
          "type": "uint256"
        },
        {
          "indexed": false,
          "internalType": "uint256",
          "name": "timestamp",
          "type": "uint256"
        }
      ],
      "name": "PaymentMade",
      "type": "event"
    },
    {
      "inputs": [],
      "name": "owner",
      "outputs": [
        {
          "internalType": "address",
          "name": "",
          "type": "address"
        }
      ],
      "stateMutability": "view",
      "type": "function",
      "constant": true
    },
    {
      "inputs": [],
      "name": "ownerFeePercent",
      "outputs": [
        {
          "internalType": "uint256",
          "name": "",
          "type": "uint256"
        }
      ],
      "stateMutability": "view",
      "type": "function",
      "constant": true
    },
    {
      "inputs": [
        {
          "internalType": "uint256",
          "name": "",
          "type": "uint256"
        }
      ],
      "name": "paymentHistory",
      "outputs": [
        {
          "internalType": "address",
          "name": "from",
          "type": "address"
        },
        {
          "internalType": "address",
          "name": "to",
          "type": "address"
        },
        {
          "internalType": "uint256",
          "name": "amount",
          "type": "uint256"
        },
        {
          "internalType": "uint256",
          "name": "timestamp",
          "type": "uint256"
        }
      ],
      "stateMutability": "view",
      "type": "function",
      "constant": true
    },
    {
      "inputs": [
        {
          "internalType": "address payable",
          "name": "_to",
          "type": "address"
        }
      ],
      "name": "sendPayment",
      "outputs": [],
      "stateMutability": "payable",
      "type": "function",
      "payable": true
    },
    {
      "inputs": [],
      "name": "getPaymentHistory",
      "outputs": [
        {
          "components": [
            {
              "internalType": "address",
              "name": "from",
              "type": "address"
            },
            {
              "internalType": "address",
              "name": "to",
              "type": "address"
            },
            {
              "internalType": "uint256",
              "name": "amount",
              "type": "uint256"
            },
            {
              "internalType": "uint256",
              "name": "timestamp",
              "type": "uint256"
            }
          ],
          "internalType": "struct PaymentContract.Payment[]",
          "name": "",
          "type": "tuple[]"
        }
      ],
      "stateMutability": "view",
      "type": "function",
      "constant": true
    },
    {
      "inputs": [],
      "name": "getPaymentCount",
      "outputs": [
        {
          "internalType": "uint256",
          "name": "",
          "type": "uint256"
        }
      ],
      "stateMutability": "view",
      "type": "function",
      "constant": true
    },
    {
      "inputs": [
        {
          "internalType": "uint256",
          "name": "index",
          "type": "uint256"
        }
      ],
      "name": "getPaymentByIndex",
      "outputs": [
        {
          "internalType": "address",
          "name": "from",
          "type": "address"
        },
        {
          "internalType": "address",
          "name": "to",
          "type": "address"
        },
        {
          "internalType": "uint256",
          "name": "amount",
          "type": "uint256"
        },
        {
          "internalType": "uint256",
          "name": "timestamp",
          "type": "uint256"
        }
      ],
      "stateMutability": "view",
      "type": "function",
      "constant": true
    }
  ],
  "bytecode": "0x6080604052348015600f57600080fd5b50604051610806380380610806833981016040819052602c916045565b60008054600160a060020a03191633179055600155605d565b600060208284031215605657600080fd5b5051919050565b61079a8061006c6000396000f3fe60806040526004361061008d576000357c0100000000000000000000000000000000000000000000000000000000900480638da5cb5b1161006b5780638da5cb5b1461011b578063a5e047b814610153578063af32a03f14610173578063b651bb611461018857600080fd5b80635922aeda146100925780636998de35146100e25780638a7644a814610106575b600080fd5b34801561009e57600080fd5b506100b26100ad3660046105d7565b6101aa565b60408051600160a060020a0395861681529490931660208501529183015260608201526080015b60405180910390f35b3480156100ee57600080fd5b506100f860015481565b6040519081526020016100d9565b6101196101143660046105f0565b61029b565b005b34801561012757600080fd5b5060005461013b90600160a060020a031681565b604051600160a060020a0390911681526020016100d9565b34801561015f57600080fd5b506100b261016e3660046105d7565b610502565b34801561017f57600080fd5b506002546100f8565b34801561019457600080fd5b5061019d610548565b6040516100d99190610620565b6000806000806002805490508510610223576040517f08c379a000000000000000000000000000000000000000000000000000000000815260206004820152600d60248201527f496e76616c696420696e6465780000000000000000000000000000000000000060448201526064015b60405180910390fd5b6000600286815481106102385761023861069b565b6000918252602091829020604080516080810182526004939093029091018054600160a060020a03908116808552600183015490911694840185905260028201549284018390526003909101546060909301839052999298509650945092505050565b60003411610305576040517f08c379a000000000000000000000000000000000000000000000000000000000815260206004820181905260248201527f416d6f756e74206d7573742062652067726561746572207468616e207a65726f604482015260640161021a565b600060646001543461031791906106f9565b6103219190610716565b9050600061032f8234610751565b604051909150600160a060020a0384169082156108fc029083906000818181858888f19350505050158015610368573d6000803e3d6000fd5b5060008054604051600160a060020a039091169184156108fc02918591818181858888f193505050501580156103a2573d6000803e3d6000fd5b506040805160808101825233808252600160a060020a0386811660208401818152848601878152426060870181815260028054600181018255600091909152975160049098027f405787fa12a823e0f2b7631cc41b3ba8828b3321ca811111fa75cd3aa3bb5ace8101805499881673ffffffffffffffffffffffffffffffffffffffff199a8b1617905593517f405787fa12a823e0f2b7631cc41b3ba8828b3321ca811111fa75cd3aa3bb5acf8501805491909716981697909717909455517f405787fa12a823e0f2b7631cc41b3ba8828b3321ca811111fa75cd3aa3bb5ad082015593517f405787fa12a823e0f2b7631cc41b3ba8828b3321ca811111fa75cd3aa3bb5ad1909401939093559251919290917f73bc067f8d6bb15a01636f9b76c6daa98472621717a0788af90498d8bfe69eb0916104f591869188919283526020830191909152604082015260600190565b60405180910390a3505050565b6002818154811061051257600080fd5b60009182526020909120600490910201805460018201546002830154600390930154600160a060020a0392831694509116919084565b60606002805480602002602001604051908101604052809291908181526020016000905b828210156105ce57600084815260209081902060408051608081018252600486029092018054600160a060020a03908116845260018083015490911684860152600282015492840192909252600301546060830152908352909201910161056c565b50505050905090565b6000602082840312156105e957600080fd5b5035919050565b60006020828403121561060257600080fd5b8135600160a060020a038116811461061957600080fd5b9392505050565b602080825282518282018190526000918401906040840190835b81811015610690578351600160a060020a038151168452600160a060020a03602082015116602085015260408101516040850152606081015160608501525060808301925060208401935060018101905061063a565b509095945050505050565b7f4e487b7100000000000000000000000000000000000000000000000000000000600052603260045260246000fd5b7f4e487b7100000000000000000000000000000000000000000000000000000000600052601160045260246000fd5b8082028115828204841417610710576107106106ca565b92915050565b60008261074c577f4e487b7100000000000000000000000000000000000000000000000000000000600052601260045260246000fd5b500490565b81810381811115610710576107106106ca56fea2646970667358221220810cb76f19c704c48fc6689b628a066b9b95088f7378c0a77d05d0ef22063d2964736f6c634300081b0033",
  "immutableReferences": {},
  "source": "// SPDX-License-Identifier: MIT\npragma solidity ^0.8.0;\n\ncontract PaymentContract {\n    struct Payment {\n        address from;\n        address to;\n        uint256 amount;\n        uint256 timestamp;\n    }\n\n    address public owner;\n    uint256 public ownerFeePercent;\n\n    Payment[] public paymentHistory;\n\n    event PaymentMade(address indexed from, address indexed to, uint256 amount, uint256 ownerFee, uint256 timestamp);\n\n    constructor(uint256 _ownerFeePercent) {\n        owner = msg.sender;\n        ownerFeePercent = _ownerFeePercent;\n    }\n\n    function sendPayment(address payable _to) external payable {\n        require(msg.value > 0, \"Amount must be greater than zero\");\n\n        uint256 ownerFee = (msg.value * ownerFeePercent) / 100;\n\n        uint256 recipientAmount = msg.value - ownerFee;\n\n        _to.transfer(recipientAmount);\n        payable(owner).transfer(ownerFee);\n\n        paymentHistory.push(Payment({\n            from: msg.sender,\n            to: _to,\n            amount: recipientAmount,\n            timestamp: block.timestamp\n        }));\n\n        emit PaymentMade(msg.sender, _to, recipientAmount, ownerFee, block.timestamp);\n    }\n\n    function getPaymentHistory() external view returns (Payment[] memory) {\n        return paymentHistory;\n    }\n\n    function getPaymentCount() external view returns (uint256) {\n        return paymentHistory.length;\n    }\n\n    function getPaymentByIndex(uint256 index) external view returns (address from, address to, uint256 amount, uint256 timestamp) {\n        require(index < paymentHistory.length, \"Invalid index\");\n\n        Payment memory payment = paymentHistory[index];\n        return (payment.from, payment.to, payment.amount, payment.timestamp);\n    }\n}",
  "sourcePath": "/Users/sunsuking/Developer/Projects/2024/ttalkak/server/contract-service/contracts/contracts/PaymentContract.sol",
  "compiler": {
    "name": "solc",
    "version": "0.8.27+commit.40a35a09.Emscripten.clang"
  },
  "schemaVersion": "3.4.16",
  "updatedAt": "2024-09-16T02:14:51.764Z",
  "networkType": "ethereum",
  "devdoc": {
    "kind": "dev",
    "methods": {},
    "version": 1
  },
  "userdoc": {
    "kind": "user",
    "methods": {},
    "version": 1
  }
}