{
  "contractName": "SourceCodeToken",
  "abi": [
    {
      "inputs": [],
      "stateMutability": "nonpayable",
      "type": "constructor"
    },
    {
      "inputs": [
        {
          "internalType": "address",
          "name": "sender",
          "type": "address"
        },
        {
          "internalType": "uint256",
          "name": "tokenId",
          "type": "uint256"
        },
        {
          "internalType": "address",
          "name": "owner",
          "type": "address"
        }
      ],
      "name": "ERC721IncorrectOwner",
      "type": "error"
    },
    {
      "inputs": [
        {
          "internalType": "address",
          "name": "operator",
          "type": "address"
        },
        {
          "internalType": "uint256",
          "name": "tokenId",
          "type": "uint256"
        }
      ],
      "name": "ERC721InsufficientApproval",
      "type": "error"
    },
    {
      "inputs": [
        {
          "internalType": "address",
          "name": "approver",
          "type": "address"
        }
      ],
      "name": "ERC721InvalidApprover",
      "type": "error"
    },
    {
      "inputs": [
        {
          "internalType": "address",
          "name": "operator",
          "type": "address"
        }
      ],
      "name": "ERC721InvalidOperator",
      "type": "error"
    },
    {
      "inputs": [
        {
          "internalType": "address",
          "name": "owner",
          "type": "address"
        }
      ],
      "name": "ERC721InvalidOwner",
      "type": "error"
    },
    {
      "inputs": [
        {
          "internalType": "address",
          "name": "receiver",
          "type": "address"
        }
      ],
      "name": "ERC721InvalidReceiver",
      "type": "error"
    },
    {
      "inputs": [
        {
          "internalType": "address",
          "name": "sender",
          "type": "address"
        }
      ],
      "name": "ERC721InvalidSender",
      "type": "error"
    },
    {
      "inputs": [
        {
          "internalType": "uint256",
          "name": "tokenId",
          "type": "uint256"
        }
      ],
      "name": "ERC721NonexistentToken",
      "type": "error"
    },
    {
      "anonymous": false,
      "inputs": [
        {
          "indexed": true,
          "internalType": "address",
          "name": "owner",
          "type": "address"
        },
        {
          "indexed": true,
          "internalType": "address",
          "name": "approved",
          "type": "address"
        },
        {
          "indexed": true,
          "internalType": "uint256",
          "name": "tokenId",
          "type": "uint256"
        }
      ],
      "name": "Approval",
      "type": "event"
    },
    {
      "anonymous": false,
      "inputs": [
        {
          "indexed": true,
          "internalType": "address",
          "name": "owner",
          "type": "address"
        },
        {
          "indexed": true,
          "internalType": "address",
          "name": "operator",
          "type": "address"
        },
        {
          "indexed": false,
          "internalType": "bool",
          "name": "approved",
          "type": "bool"
        }
      ],
      "name": "ApprovalForAll",
      "type": "event"
    },
    {
      "anonymous": false,
      "inputs": [
        {
          "indexed": false,
          "internalType": "uint256",
          "name": "_fromTokenId",
          "type": "uint256"
        },
        {
          "indexed": false,
          "internalType": "uint256",
          "name": "_toTokenId",
          "type": "uint256"
        }
      ],
      "name": "BatchMetadataUpdate",
      "type": "event"
    },
    {
      "anonymous": false,
      "inputs": [
        {
          "indexed": false,
          "internalType": "uint256",
          "name": "_tokenId",
          "type": "uint256"
        }
      ],
      "name": "MetadataUpdate",
      "type": "event"
    },
    {
      "anonymous": false,
      "inputs": [
        {
          "indexed": true,
          "internalType": "address",
          "name": "from",
          "type": "address"
        },
        {
          "indexed": true,
          "internalType": "address",
          "name": "to",
          "type": "address"
        },
        {
          "indexed": true,
          "internalType": "uint256",
          "name": "tokenId",
          "type": "uint256"
        }
      ],
      "name": "Transfer",
      "type": "event"
    },
    {
      "inputs": [
        {
          "internalType": "address",
          "name": "to",
          "type": "address"
        },
        {
          "internalType": "uint256",
          "name": "tokenId",
          "type": "uint256"
        }
      ],
      "name": "approve",
      "outputs": [],
      "stateMutability": "nonpayable",
      "type": "function"
    },
    {
      "inputs": [
        {
          "internalType": "address",
          "name": "owner",
          "type": "address"
        }
      ],
      "name": "balanceOf",
      "outputs": [
        {
          "internalType": "uint256",
          "name": "",
          "type": "uint256"
        }
      ],
      "stateMutability": "view",
      "type": "function"
    },
    {
      "inputs": [
        {
          "internalType": "uint256",
          "name": "tokenId",
          "type": "uint256"
        }
      ],
      "name": "getApproved",
      "outputs": [
        {
          "internalType": "address",
          "name": "",
          "type": "address"
        }
      ],
      "stateMutability": "view",
      "type": "function"
    },
    {
      "inputs": [
        {
          "internalType": "address",
          "name": "owner",
          "type": "address"
        },
        {
          "internalType": "address",
          "name": "operator",
          "type": "address"
        }
      ],
      "name": "isApprovedForAll",
      "outputs": [
        {
          "internalType": "bool",
          "name": "",
          "type": "bool"
        }
      ],
      "stateMutability": "view",
      "type": "function"
    },
    {
      "inputs": [],
      "name": "name",
      "outputs": [
        {
          "internalType": "string",
          "name": "",
          "type": "string"
        }
      ],
      "stateMutability": "view",
      "type": "function"
    },
    {
      "inputs": [
        {
          "internalType": "uint256",
          "name": "tokenId",
          "type": "uint256"
        }
      ],
      "name": "ownerOf",
      "outputs": [
        {
          "internalType": "address",
          "name": "",
          "type": "address"
        }
      ],
      "stateMutability": "view",
      "type": "function"
    },
    {
      "inputs": [
        {
          "internalType": "address",
          "name": "from",
          "type": "address"
        },
        {
          "internalType": "address",
          "name": "to",
          "type": "address"
        },
        {
          "internalType": "uint256",
          "name": "tokenId",
          "type": "uint256"
        }
      ],
      "name": "safeTransferFrom",
      "outputs": [],
      "stateMutability": "nonpayable",
      "type": "function"
    },
    {
      "inputs": [
        {
          "internalType": "address",
          "name": "from",
          "type": "address"
        },
        {
          "internalType": "address",
          "name": "to",
          "type": "address"
        },
        {
          "internalType": "uint256",
          "name": "tokenId",
          "type": "uint256"
        },
        {
          "internalType": "bytes",
          "name": "data",
          "type": "bytes"
        }
      ],
      "name": "safeTransferFrom",
      "outputs": [],
      "stateMutability": "nonpayable",
      "type": "function"
    },
    {
      "inputs": [
        {
          "internalType": "address",
          "name": "operator",
          "type": "address"
        },
        {
          "internalType": "bool",
          "name": "approved",
          "type": "bool"
        }
      ],
      "name": "setApprovalForAll",
      "outputs": [],
      "stateMutability": "nonpayable",
      "type": "function"
    },
    {
      "inputs": [
        {
          "internalType": "bytes4",
          "name": "interfaceId",
          "type": "bytes4"
        }
      ],
      "name": "supportsInterface",
      "outputs": [
        {
          "internalType": "bool",
          "name": "",
          "type": "bool"
        }
      ],
      "stateMutability": "view",
      "type": "function"
    },
    {
      "inputs": [],
      "name": "symbol",
      "outputs": [
        {
          "internalType": "string",
          "name": "",
          "type": "string"
        }
      ],
      "stateMutability": "view",
      "type": "function"
    },
    {
      "inputs": [
        {
          "internalType": "uint256",
          "name": "tokenId",
          "type": "uint256"
        }
      ],
      "name": "tokenURI",
      "outputs": [
        {
          "internalType": "string",
          "name": "",
          "type": "string"
        }
      ],
      "stateMutability": "view",
      "type": "function"
    },
    {
      "inputs": [
        {
          "internalType": "address",
          "name": "from",
          "type": "address"
        },
        {
          "internalType": "address",
          "name": "to",
          "type": "address"
        },
        {
          "internalType": "uint256",
          "name": "tokenId",
          "type": "uint256"
        }
      ],
      "name": "transferFrom",
      "outputs": [],
      "stateMutability": "nonpayable",
      "type": "function"
    },
    {
      "inputs": [
        {
          "internalType": "string",
          "name": "tokenURI",
          "type": "string"
        }
      ],
      "name": "mintSourceCodeToken",
      "outputs": [
        {
          "internalType": "uint256",
          "name": "",
          "type": "uint256"
        }
      ],
      "stateMutability": "nonpayable",
      "type": "function"
    }
  ],
  "bytecode": "0x608060405234801561001057600080fd5b506040518060400160405280600f81526020017f536f75726365436f6465546f6b656e00000000000000000000000000000000008152506040518060400160405280600381526020017f5343540000000000000000000000000000000000000000000000000000000000815250816000908161008c9190610172565b5060016100998282610172565b505050610237565b7f4e487b7100000000000000000000000000000000000000000000000000000000600052604160045260246000fd5b6002810460018216806100e457607f821691505b60208210810361011d577f4e487b7100000000000000000000000000000000000000000000000000000000600052602260045260246000fd5b50919050565b601f82111561016d578060005260206000206020601f8501048101602085101561014a5750805b6020601f850104820191505b8181101561016a5760008155600101610156565b50505b505050565b815167ffffffffffffffff81111561018c5761018c6100a1565b6101a08161019a84546100d0565b84610123565b6020601f8211600181146101d857600083156101bc5750848201515b60088402600290810a600019041982169085021785555061016a565b600084815260208120601f198516915b8281101561020857878501518255602094850194600190920191016101e8565b50848210156102285783870151601f861660080260020a60001904191681555b50505050600202600101905550565b6114f3806102466000396000f3fe608060405234801561001057600080fd5b5060043610610107576000357c01000000000000000000000000000000000000000000000000000000009004806370a08231116100a9578063b88d4fde11610083578063b88d4fde146101fe578063c1f964f814610211578063c87b56dd14610224578063e985e9c51461023757600080fd5b806370a08231146101c257806395d89b41146101e3578063a22cb465146101eb57600080fd5b8063095ea7b3116100e5578063095ea7b31461017457806323b872dd1461018957806342842e0e1461019c5780636352211e146101af57600080fd5b806301ffc9a71461010c57806306fdde0314610134578063081812fc14610149575b600080fd5b61011f61011a366004610f7d565b61024a565b60405190151581526020015b60405180910390f35b61013c61028e565b60405161012b9190610fea565b61015c610157366004610ffd565b610320565b604051600160a060020a03909116815260200161012b565b610187610182366004611032565b610349565b005b61018761019736600461105c565b610358565b6101876101aa36600461105c565b610404565b61015c6101bd366004610ffd565b610424565b6101d56101d0366004611099565b61042f565b60405190815260200161012b565b61013c610490565b6101876101f93660046110b4565b61049f565b61018761020c366004611199565b6104aa565b6101d561021f366004611215565b6104c1565b61013c610232366004610ffd565b6104ee565b61011f61024536600461125e565b6105ff565b6000600160e060020a031982167f4906490600000000000000000000000000000000000000000000000000000000148061028857506102888261062d565b92915050565b60606000805461029d90611291565b80601f01602080910402602001604051908101604052809291908181526020018280546102c990611291565b80156103165780601f106102eb57610100808354040283529160200191610316565b820191906000526020600020905b8154815290600101906020018083116102f957829003601f168201915b5050505050905090565b600061032b826106c8565b50600082815260046020526040902054600160a060020a0316610288565b61035482823361071a565b5050565b600160a060020a03821661038a5760405160e160020a6332505749028152600060048201526024015b60405180910390fd5b6000610397838333610727565b905083600160a060020a031681600160a060020a0316146103fe576040517f64283d7b000000000000000000000000000000000000000000000000000000008152600160a060020a0380861660048301526024820184905282166044820152606401610381565b50505050565b61041f838383604051806020016040528060008152506104aa565b505050565b6000610288826106c8565b6000600160a060020a038216610474576040517f89c62b6400000000000000000000000000000000000000000000000000000000815260006004820152602401610381565b50600160a060020a031660009081526003602052604090205490565b60606001805461029d90611291565b61035433838361082d565b6104b5848484610358565b6103fe848484846108e5565b6000806007600081546104d3906112e4565b918290555090506104e43382610a46565b6102888184610a60565b60606104f9826106c8565b506000828152600660205260408120805461051390611291565b80601f016020809104026020016040519081016040528092919081815260200182805461053f90611291565b801561058c5780601f106105615761010080835404028352916020019161058c565b820191906000526020600020905b81548152906001019060200180831161056f57829003601f168201915b5050505050905060006105aa60408051602081019091526000815290565b905080516000036105bc575092915050565b8151156105ee5780826040516020016105d6929190611324565b60405160208183030381529060405292505050919050565b6105f784610ab0565b949350505050565b600160a060020a03918216600090815260056020908152604080832093909416825291909152205460ff1690565b6000600160e060020a031982167f80ac58cd0000000000000000000000000000000000000000000000000000000014806106905750600160e060020a031982167f5b5e139f00000000000000000000000000000000000000000000000000000000145b8061028857507f01ffc9a700000000000000000000000000000000000000000000000000000000600160e060020a0319831614610288565b600081815260026020526040812054600160a060020a031680610288576040517f7e27328900000000000000000000000000000000000000000000000000000000815260048101849052602401610381565b61041f8383836001610b25565b600082815260026020526040812054600160a060020a039081169083161561075457610754818486610c51565b600160a060020a0381161561079257610771600085600080610b25565b600160a060020a038116600090815260036020526040902080546000190190555b600160a060020a038516156107c157600160a060020a0385166000908152600360205260409020805460010190555b600084815260026020526040808220805473ffffffffffffffffffffffffffffffffffffffff1916600160a060020a0389811691821790925591518793918516917fddf252ad1be2c89b69c2b068fc378daa952ba7f163c4a11628f55a4df523b3ef91a4949350505050565b600160a060020a038216610878576040517f5b08ba18000000000000000000000000000000000000000000000000000000008152600160a060020a0383166004820152602401610381565b600160a060020a03838116600081815260056020908152604080832094871680845294825291829020805460ff191686151590811790915591519182527f17307eab39ab6107e8899845ad3d59bd9653f200f220920489ca2b5937696c31910160405180910390a3505050565b600160a060020a0383163b156103fe576040517f150b7a02000000000000000000000000000000000000000000000000000000008152600160a060020a0384169063150b7a0290610940903390889087908790600401611353565b6020604051808303816000875af192505050801561097b575060408051601f3d908101601f1916820190925261097891810190611394565b60015b6109e7573d8080156109a9576040519150601f19603f3d011682016040523d82523d6000602084013e6109ae565b606091505b5080516000036109df5760405160e160020a6332505749028152600160a060020a0385166004820152602401610381565b805181602001fd5b600160e060020a031981167f150b7a020000000000000000000000000000000000000000000000000000000014610a3f5760405160e160020a6332505749028152600160a060020a0385166004820152602401610381565b5050505050565b610354828260405180602001604052806000815250610ce7565b6000828152600660205260409020610a7882826113f8565b506040518281527ff8e1a15aba9398e019f0b49df1a4fde98ee17ae345cb5f6b5e2c27f5033e8ce79060200160405180910390a15050565b6060610abb826106c8565b506000610ad360408051602081019091526000815290565b90506000815111610af35760405180602001604052806000815250610b1e565b80610afd84610cfe565b604051602001610b0e929190611324565b6040516020818303038152906040525b9392505050565b8080610b395750600160a060020a03821615155b15610c14576000610b49846106c8565b9050600160a060020a03831615801590610b75575082600160a060020a031681600160a060020a031614155b8015610b885750610b8681846105ff565b155b15610bca576040517fa9fbf51f000000000000000000000000000000000000000000000000000000008152600160a060020a0384166004820152602401610381565b8115610c12578385600160a060020a031682600160a060020a03167f8c5be1e5ebec7d5bd14f71427d1e84f3dd0314c0f7b2291e5b200ac8c7c3b92560405160405180910390a45b505b50506000908152600460205260409020805473ffffffffffffffffffffffffffffffffffffffff1916600160a060020a0392909216919091179055565b610c5c838383610d9e565b61041f57600160a060020a038316610ca3576040517f7e27328900000000000000000000000000000000000000000000000000000000815260048101829052602401610381565b6040517f177e802f000000000000000000000000000000000000000000000000000000008152600160a060020a038316600482015260248101829052604401610381565b610cf18383610e01565b61041f60008484846108e5565b60606000610d0b83610e82565b600101905060008167ffffffffffffffff811115610d2b57610d2b6110f0565b6040519080825280601f01601f191660200182016040528015610d55576020820181803683370190505b5090508181016020015b600019017f3031323334353637383961626364656600000000000000000000000000000000600a86061a8153600a8504945084610d5f57509392505050565b6000600160a060020a038316158015906105f7575082600160a060020a031684600160a060020a03161480610dd85750610dd884846105ff565b806105f7575050600090815260046020526040902054600160a060020a03908116911614919050565b600160a060020a038216610e2e5760405160e160020a633250574902815260006004820152602401610381565b6000610e3c83836000610727565b9050600160a060020a0381161561041f576040517f73c6ac6e00000000000000000000000000000000000000000000000000000000815260006004820152602401610381565b6000807a184f03e93ff9f4daa797ed6e38ed64bf6a1f0100000000000000008310610ecb577a184f03e93ff9f4daa797ed6e38ed64bf6a1f010000000000000000830492506040015b6d04ee2d6d415b85acef81000000008310610ef7576d04ee2d6d415b85acef8100000000830492506020015b662386f26fc100008310610f1557662386f26fc10000830492506010015b6305f5e1008310610f2d576305f5e100830492506008015b6127108310610f4157612710830492506004015b60648310610f53576064830492506002015b600a83106102885760010192915050565b600160e060020a031981168114610f7a57600080fd5b50565b600060208284031215610f8f57600080fd5b8135610b1e81610f64565b60005b83811015610fb5578181015183820152602001610f9d565b50506000910152565b60008151808452610fd6816020860160208601610f9a565b601f01601f19169290920160200192915050565b602081526000610b1e6020830184610fbe565b60006020828403121561100f57600080fd5b5035919050565b8035600160a060020a038116811461102d57600080fd5b919050565b6000806040838503121561104557600080fd5b61104e83611016565b946020939093013593505050565b60008060006060848603121561107157600080fd5b61107a84611016565b925061108860208501611016565b929592945050506040919091013590565b6000602082840312156110ab57600080fd5b610b1e82611016565b600080604083850312156110c757600080fd5b6110d083611016565b9150602083013580151581146110e557600080fd5b809150509250929050565b7f4e487b7100000000000000000000000000000000000000000000000000000000600052604160045260246000fd5b60008067ffffffffffffffff84111561113a5761113a6110f0565b50604051601f19601f85018116603f0116810181811067ffffffffffffffff82111715611169576111696110f0565b60405283815290508082840185101561118157600080fd5b83836020830137600060208583010152509392505050565b600080600080608085870312156111af57600080fd5b6111b885611016565b93506111c660208601611016565b925060408501359150606085013567ffffffffffffffff8111156111e957600080fd5b8501601f810187136111fa57600080fd5b6112098782356020840161111f565b91505092959194509250565b60006020828403121561122757600080fd5b813567ffffffffffffffff81111561123e57600080fd5b8201601f8101841361124f57600080fd5b6105f78482356020840161111f565b6000806040838503121561127157600080fd5b61127a83611016565b915061128860208401611016565b90509250929050565b6002810460018216806112a557607f821691505b6020821081036112de577f4e487b7100000000000000000000000000000000000000000000000000000000600052602260045260246000fd5b50919050565b60006001820161131d577f4e487b7100000000000000000000000000000000000000000000000000000000600052601160045260246000fd5b5060010190565b60008351611336818460208801610f9a565b83519083019061134a818360208801610f9a565b01949350505050565b600160a060020a0385168152600160a060020a038416602082015282604082015260806060820152600061138a6080830184610fbe565b9695505050505050565b6000602082840312156113a657600080fd5b8151610b1e81610f64565b601f82111561041f578060005260206000206020601f850104810160208510156113d85750805b6020601f850104820191505b81811015610a3f57600081556001016113e4565b815167ffffffffffffffff811115611412576114126110f0565b611426816114208454611291565b846113b1565b6020601f82116001811461145e57600083156114425750848201515b60088402600290810a6000190419821690850217855550610a3f565b600084815260208120601f198516915b8281101561148e578785015182556020948501946001909201910161146e565b50848210156114ae5783870151601f861660080260020a60001904191681555b5050505060020260010190555056fea2646970667358221220279379d83e19a76c3a86e5d770d2ec86aae9ffb975f9f2fe59c4229026f49ae064736f6c634300081b0033",
  "immutableReferences": {},
  "source": "// SPDX-License-Identifier: UNLICENSED\n\npragma solidity ^0.8.0;\n\nimport \"@openzeppelin/contracts/token/ERC721/extensions/ERC721URIStorage.sol\";\n\ncontract SourceCodeToken is ERC721URIStorage {\n    struct SourceCodeMetadata {\n        string name;\n        string commit;\n        string version;\n        string[] fileHashes;\n        uint256 timestamp;\n    }\n\n    uint256 private _nextTokenId;\n\n    constructor() ERC721(\"SourceCodeToken\", \"SCT\") {}\n\n    function mintSourceCodeToken(\n        string memory tokenURI\n    ) public returns (uint256) {\n        uint256 newTokenId = ++_nextTokenId;\n\n        _safeMint(msg.sender, newTokenId);\n\n        _setTokenURI(newTokenId, tokenURI);\n\n        \n\n        return newTokenId;\n    }\n}\n",
  "sourcePath": "/Users/sunsuking/Developer/Projects/2024/ttalkak/server/contract-service/contracts/contracts/SourceCodeNFT.sol",
  "compiler": {
    "name": "solc",
    "version": "0.8.27+commit.40a35a09.Emscripten.clang"
  },
  "schemaVersion": "3.4.16",
  "updatedAt": "2024-10-04T13:07:07.421Z",
  "devdoc": {
    "errors": {
      "ERC721IncorrectOwner(address,uint256,address)": [
        {
          "details": "Indicates an error related to the ownership over a particular token. Used in transfers.",
          "params": {
            "owner": "Address of the current owner of a token.",
            "sender": "Address whose tokens are being transferred.",
            "tokenId": "Identifier number of a token."
          }
        }
      ],
      "ERC721InsufficientApproval(address,uint256)": [
        {
          "details": "Indicates a failure with the `operator`s approval. Used in transfers.",
          "params": {
            "operator": "Address that may be allowed to operate on tokens without being their owner.",
            "tokenId": "Identifier number of a token."
          }
        }
      ],
      "ERC721InvalidApprover(address)": [
        {
          "details": "Indicates a failure with the `approver` of a token to be approved. Used in approvals.",
          "params": {
            "approver": "Address initiating an approval operation."
          }
        }
      ],
      "ERC721InvalidOperator(address)": [
        {
          "details": "Indicates a failure with the `operator` to be approved. Used in approvals.",
          "params": {
            "operator": "Address that may be allowed to operate on tokens without being their owner."
          }
        }
      ],
      "ERC721InvalidOwner(address)": [
        {
          "details": "Indicates that an address can't be an owner. For example, `address(0)` is a forbidden owner in EIP-20. Used in balance queries.",
          "params": {
            "owner": "Address of the current owner of a token."
          }
        }
      ],
      "ERC721InvalidReceiver(address)": [
        {
          "details": "Indicates a failure with the token `receiver`. Used in transfers.",
          "params": {
            "receiver": "Address to which tokens are being transferred."
          }
        }
      ],
      "ERC721InvalidSender(address)": [
        {
          "details": "Indicates a failure with the token `sender`. Used in transfers.",
          "params": {
            "sender": "Address whose tokens are being transferred."
          }
        }
      ],
      "ERC721NonexistentToken(uint256)": [
        {
          "details": "Indicates a `tokenId` whose `owner` is the zero address.",
          "params": {
            "tokenId": "Identifier number of a token."
          }
        }
      ]
    },
    "events": {
      "Approval(address,address,uint256)": {
        "details": "Emitted when `owner` enables `approved` to manage the `tokenId` token."
      },
      "ApprovalForAll(address,address,bool)": {
        "details": "Emitted when `owner` enables or disables (`approved`) `operator` to manage all of its assets."
      },
      "BatchMetadataUpdate(uint256,uint256)": {
        "details": "This event emits when the metadata of a range of tokens is changed. So that the third-party platforms such as NFT market could timely update the images and related attributes of the NFTs."
      },
      "MetadataUpdate(uint256)": {
        "details": "This event emits when the metadata of a token is changed. So that the third-party platforms such as NFT market could timely update the images and related attributes of the NFT."
      },
      "Transfer(address,address,uint256)": {
        "details": "Emitted when `tokenId` token is transferred from `from` to `to`."
      }
    },
    "kind": "dev",
    "methods": {
      "approve(address,uint256)": {
        "details": "See {IERC721-approve}."
      },
      "balanceOf(address)": {
        "details": "See {IERC721-balanceOf}."
      },
      "getApproved(uint256)": {
        "details": "See {IERC721-getApproved}."
      },
      "isApprovedForAll(address,address)": {
        "details": "See {IERC721-isApprovedForAll}."
      },
      "name()": {
        "details": "See {IERC721Metadata-name}."
      },
      "ownerOf(uint256)": {
        "details": "See {IERC721-ownerOf}."
      },
      "safeTransferFrom(address,address,uint256)": {
        "details": "See {IERC721-safeTransferFrom}."
      },
      "safeTransferFrom(address,address,uint256,bytes)": {
        "details": "See {IERC721-safeTransferFrom}."
      },
      "setApprovalForAll(address,bool)": {
        "details": "See {IERC721-setApprovalForAll}."
      },
      "supportsInterface(bytes4)": {
        "details": "See {IERC165-supportsInterface}"
      },
      "symbol()": {
        "details": "See {IERC721Metadata-symbol}."
      },
      "tokenURI(uint256)": {
        "details": "See {IERC721Metadata-tokenURI}."
      },
      "transferFrom(address,address,uint256)": {
        "details": "See {IERC721-transferFrom}."
      }
    },
    "version": 1
  },
  "userdoc": {
    "kind": "user",
    "methods": {},
    "version": 1
  }
}