{
  "contractName": "SourceCodeNFT",
  "abi": [
    {
      "inputs": [],
      "stateMutability": "nonpayable",
      "type": "constructor"
    },
    {
      "inputs": [
        {
          "internalType": "address",
          "name": "sender",
          "type": "address"
        },
        {
          "internalType": "uint256",
          "name": "tokenId",
          "type": "uint256"
        },
        {
          "internalType": "address",
          "name": "owner",
          "type": "address"
        }
      ],
      "name": "ERC721IncorrectOwner",
      "type": "error"
    },
    {
      "inputs": [
        {
          "internalType": "address",
          "name": "operator",
          "type": "address"
        },
        {
          "internalType": "uint256",
          "name": "tokenId",
          "type": "uint256"
        }
      ],
      "name": "ERC721InsufficientApproval",
      "type": "error"
    },
    {
      "inputs": [
        {
          "internalType": "address",
          "name": "approver",
          "type": "address"
        }
      ],
      "name": "ERC721InvalidApprover",
      "type": "error"
    },
    {
      "inputs": [
        {
          "internalType": "address",
          "name": "operator",
          "type": "address"
        }
      ],
      "name": "ERC721InvalidOperator",
      "type": "error"
    },
    {
      "inputs": [
        {
          "internalType": "address",
          "name": "owner",
          "type": "address"
        }
      ],
      "name": "ERC721InvalidOwner",
      "type": "error"
    },
    {
      "inputs": [
        {
          "internalType": "address",
          "name": "receiver",
          "type": "address"
        }
      ],
      "name": "ERC721InvalidReceiver",
      "type": "error"
    },
    {
      "inputs": [
        {
          "internalType": "address",
          "name": "sender",
          "type": "address"
        }
      ],
      "name": "ERC721InvalidSender",
      "type": "error"
    },
    {
      "inputs": [
        {
          "internalType": "uint256",
          "name": "tokenId",
          "type": "uint256"
        }
      ],
      "name": "ERC721NonexistentToken",
      "type": "error"
    },
    {
      "anonymous": false,
      "inputs": [
        {
          "indexed": true,
          "internalType": "address",
          "name": "owner",
          "type": "address"
        },
        {
          "indexed": true,
          "internalType": "address",
          "name": "approved",
          "type": "address"
        },
        {
          "indexed": true,
          "internalType": "uint256",
          "name": "tokenId",
          "type": "uint256"
        }
      ],
      "name": "Approval",
      "type": "event"
    },
    {
      "anonymous": false,
      "inputs": [
        {
          "indexed": true,
          "internalType": "address",
          "name": "owner",
          "type": "address"
        },
        {
          "indexed": true,
          "internalType": "address",
          "name": "operator",
          "type": "address"
        },
        {
          "indexed": false,
          "internalType": "bool",
          "name": "approved",
          "type": "bool"
        }
      ],
      "name": "ApprovalForAll",
      "type": "event"
    },
    {
      "anonymous": false,
      "inputs": [
        {
          "indexed": true,
          "internalType": "address",
          "name": "from",
          "type": "address"
        },
        {
          "indexed": true,
          "internalType": "address",
          "name": "to",
          "type": "address"
        },
        {
          "indexed": true,
          "internalType": "uint256",
          "name": "tokenId",
          "type": "uint256"
        }
      ],
      "name": "Transfer",
      "type": "event"
    },
    {
      "inputs": [
        {
          "internalType": "address",
          "name": "to",
          "type": "address"
        },
        {
          "internalType": "uint256",
          "name": "tokenId",
          "type": "uint256"
        }
      ],
      "name": "approve",
      "outputs": [],
      "stateMutability": "nonpayable",
      "type": "function"
    },
    {
      "inputs": [
        {
          "internalType": "address",
          "name": "owner",
          "type": "address"
        }
      ],
      "name": "balanceOf",
      "outputs": [
        {
          "internalType": "uint256",
          "name": "",
          "type": "uint256"
        }
      ],
      "stateMutability": "view",
      "type": "function",
      "constant": true
    },
    {
      "inputs": [],
      "name": "currentTokenId",
      "outputs": [
        {
          "internalType": "uint256",
          "name": "",
          "type": "uint256"
        }
      ],
      "stateMutability": "view",
      "type": "function",
      "constant": true
    },
    {
      "inputs": [
        {
          "internalType": "uint256",
          "name": "tokenId",
          "type": "uint256"
        }
      ],
      "name": "getApproved",
      "outputs": [
        {
          "internalType": "address",
          "name": "",
          "type": "address"
        }
      ],
      "stateMutability": "view",
      "type": "function",
      "constant": true
    },
    {
      "inputs": [
        {
          "internalType": "address",
          "name": "owner",
          "type": "address"
        },
        {
          "internalType": "address",
          "name": "operator",
          "type": "address"
        }
      ],
      "name": "isApprovedForAll",
      "outputs": [
        {
          "internalType": "bool",
          "name": "",
          "type": "bool"
        }
      ],
      "stateMutability": "view",
      "type": "function",
      "constant": true
    },
    {
      "inputs": [
        {
          "internalType": "uint256",
          "name": "",
          "type": "uint256"
        }
      ],
      "name": "metadataMapping",
      "outputs": [
        {
          "internalType": "string",
          "name": "name",
          "type": "string"
        },
        {
          "internalType": "string",
          "name": "commit",
          "type": "string"
        },
        {
          "internalType": "string",
          "name": "version",
          "type": "string"
        },
        {
          "internalType": "uint256",
          "name": "timestamp",
          "type": "uint256"
        }
      ],
      "stateMutability": "view",
      "type": "function",
      "constant": true
    },
    {
      "inputs": [],
      "name": "name",
      "outputs": [
        {
          "internalType": "string",
          "name": "",
          "type": "string"
        }
      ],
      "stateMutability": "view",
      "type": "function",
      "constant": true
    },
    {
      "inputs": [
        {
          "internalType": "uint256",
          "name": "tokenId",
          "type": "uint256"
        }
      ],
      "name": "ownerOf",
      "outputs": [
        {
          "internalType": "address",
          "name": "",
          "type": "address"
        }
      ],
      "stateMutability": "view",
      "type": "function",
      "constant": true
    },
    {
      "inputs": [
        {
          "internalType": "address",
          "name": "from",
          "type": "address"
        },
        {
          "internalType": "address",
          "name": "to",
          "type": "address"
        },
        {
          "internalType": "uint256",
          "name": "tokenId",
          "type": "uint256"
        }
      ],
      "name": "safeTransferFrom",
      "outputs": [],
      "stateMutability": "nonpayable",
      "type": "function"
    },
    {
      "inputs": [
        {
          "internalType": "address",
          "name": "from",
          "type": "address"
        },
        {
          "internalType": "address",
          "name": "to",
          "type": "address"
        },
        {
          "internalType": "uint256",
          "name": "tokenId",
          "type": "uint256"
        },
        {
          "internalType": "bytes",
          "name": "data",
          "type": "bytes"
        }
      ],
      "name": "safeTransferFrom",
      "outputs": [],
      "stateMutability": "nonpayable",
      "type": "function"
    },
    {
      "inputs": [
        {
          "internalType": "address",
          "name": "operator",
          "type": "address"
        },
        {
          "internalType": "bool",
          "name": "approved",
          "type": "bool"
        }
      ],
      "name": "setApprovalForAll",
      "outputs": [],
      "stateMutability": "nonpayable",
      "type": "function"
    },
    {
      "inputs": [
        {
          "internalType": "bytes4",
          "name": "interfaceId",
          "type": "bytes4"
        }
      ],
      "name": "supportsInterface",
      "outputs": [
        {
          "internalType": "bool",
          "name": "",
          "type": "bool"
        }
      ],
      "stateMutability": "view",
      "type": "function",
      "constant": true
    },
    {
      "inputs": [],
      "name": "symbol",
      "outputs": [
        {
          "internalType": "string",
          "name": "",
          "type": "string"
        }
      ],
      "stateMutability": "view",
      "type": "function",
      "constant": true
    },
    {
      "inputs": [
        {
          "internalType": "uint256",
          "name": "tokenId",
          "type": "uint256"
        }
      ],
      "name": "tokenURI",
      "outputs": [
        {
          "internalType": "string",
          "name": "",
          "type": "string"
        }
      ],
      "stateMutability": "view",
      "type": "function",
      "constant": true
    },
    {
      "inputs": [
        {
          "internalType": "address",
          "name": "from",
          "type": "address"
        },
        {
          "internalType": "address",
          "name": "to",
          "type": "address"
        },
        {
          "internalType": "uint256",
          "name": "tokenId",
          "type": "uint256"
        }
      ],
      "name": "transferFrom",
      "outputs": [],
      "stateMutability": "nonpayable",
      "type": "function"
    },
    {
      "inputs": [
        {
          "internalType": "string",
          "name": "name",
          "type": "string"
        },
        {
          "internalType": "string",
          "name": "commit",
          "type": "string"
        },
        {
          "internalType": "string",
          "name": "version",
          "type": "string"
        },
        {
          "internalType": "string[]",
          "name": "fileHashes",
          "type": "string[]"
        }
      ],
      "name": "mintSourceCodeNFT",
      "outputs": [
        {
          "internalType": "uint256",
          "name": "",
          "type": "uint256"
        }
      ],
      "stateMutability": "nonpayable",
      "type": "function"
    },
    {
      "inputs": [
        {
          "internalType": "uint256",
          "name": "tokenId",
          "type": "uint256"
        }
      ],
      "name": "getMetadata",
      "outputs": [
        {
          "components": [
            {
              "internalType": "string",
              "name": "name",
              "type": "string"
            },
            {
              "internalType": "string",
              "name": "commit",
              "type": "string"
            },
            {
              "internalType": "string",
              "name": "version",
              "type": "string"
            },
            {
              "internalType": "string[]",
              "name": "fileHashes",
              "type": "string[]"
            },
            {
              "internalType": "uint256",
              "name": "timestamp",
              "type": "uint256"
            }
          ],
          "internalType": "struct SourceCodeNFT.SourceCodeMetadata",
          "name": "",
          "type": "tuple"
        }
      ],
      "stateMutability": "view",
      "type": "function",
      "constant": true
    }
  ],
  "bytecode": "0x6080604052600060065534801561001557600080fd5b506040518060400160405280600d81526020017f536f75726365436f64654e4654000000000000000000000000000000000000008152506040518060400160405280600381526020017f544e46000000000000000000000000000000000000000000000000000000000081525081600090816100919190610177565b50600161009e8282610177565b50505061023c565b7f4e487b7100000000000000000000000000000000000000000000000000000000600052604160045260246000fd5b6002810460018216806100e957607f821691505b602082108103610122577f4e487b7100000000000000000000000000000000000000000000000000000000600052602260045260246000fd5b50919050565b601f821115610172578060005260206000206020601f8501048101602085101561014f5750805b6020601f850104820191505b8181101561016f576000815560010161015b565b50505b505050565b815167ffffffffffffffff811115610191576101916100a6565b6101a58161019f84546100d5565b84610128565b6020601f8211600181146101dd57600083156101c15750848201515b60088402600290810a600019041982169085021785555061016f565b600084815260208120601f198516915b8281101561020d57878501518255602094850194600190920191016101ed565b508482101561022d5783870151601f861660080260020a60001904191681555b50505050600202600101905550565b611bed8061024b6000396000f3fe608060405234801561001057600080fd5b5060043610610127576000357c0100000000000000000000000000000000000000000000000000000000900480636352211e116100bf578063a22cb4651161008e578063a22cb4651461024a578063a574cea41461025d578063b88d4fde1461027d578063c87b56dd14610290578063e985e9c5146102a357600080fd5b80636352211e1461020957806370a082311461021c578063837fb5031461022f57806395d89b411461024257600080fd5b8063095ea7b3116100fb578063095ea7b3146101ab57806323b872dd146101c05780632c978286146101d357806342842e0e146101f657600080fd5b80629a9b7b1461012c57806301ffc9a71461014857806306fdde031461016b578063081812fc14610180575b600080fd5b61013560065481565b6040519081526020015b60405180910390f35b61015b610156366004611424565b6102b6565b604051901515815260200161013f565b610173610353565b60405161013f9190611491565b61019361018e3660046114a4565b6103e5565b604051600160a060020a03909116815260200161013f565b6101be6101b93660046114d9565b61040e565b005b6101be6101ce366004611503565b61041d565b6101e66101e13660046114a4565b6104c9565b60405161013f9493929190611540565b6101be610204366004611503565b610689565b6101936102173660046114a4565b6106a9565b61013561022a36600461158b565b6106b4565b61013561023d366004611682565b610715565b6101736107e2565b6101be6102583660046117d7565b6107f1565b61027061026b3660046114a4565b6107fc565b60405161013f9190611813565b6101be61028b3660046118e2565b610ae6565b61017361029e3660046114a4565b610afd565b61015b6102b136600461195e565b610b72565b6000600160e060020a031982167f80ac58cd0000000000000000000000000000000000000000000000000000000014806103195750600160e060020a031982167f5b5e139f00000000000000000000000000000000000000000000000000000000145b8061034d57507f01ffc9a700000000000000000000000000000000000000000000000000000000600160e060020a03198316145b92915050565b60606000805461036290611991565b80601f016020809104026020016040519081016040528092919081815260200182805461038e90611991565b80156103db5780601f106103b0576101008083540402835291602001916103db565b820191906000526020600020905b8154815290600101906020018083116103be57829003601f168201915b5050505050905090565b60006103f082610ba0565b50600082815260046020526040902054600160a060020a031661034d565b610419828233610bf2565b5050565b600160a060020a03821661044f5760405160e160020a6332505749028152600060048201526024015b60405180910390fd5b600061045c838333610bff565b905083600160a060020a031681600160a060020a0316146104c3576040517f64283d7b000000000000000000000000000000000000000000000000000000008152600160a060020a0380861660048301526024820184905282166044820152606401610446565b50505050565b6007602052600090815260409020805481906104e490611991565b80601f016020809104026020016040519081016040528092919081815260200182805461051090611991565b801561055d5780601f106105325761010080835404028352916020019161055d565b820191906000526020600020905b81548152906001019060200180831161054057829003601f168201915b50505050509080600101805461057290611991565b80601f016020809104026020016040519081016040528092919081815260200182805461059e90611991565b80156105eb5780601f106105c0576101008083540402835291602001916105eb565b820191906000526020600020905b8154815290600101906020018083116105ce57829003601f168201915b50505050509080600201805461060090611991565b80601f016020809104026020016040519081016040528092919081815260200182805461062c90611991565b80156106795780601f1061064e57610100808354040283529160200191610679565b820191906000526020600020905b81548152906001019060200180831161065c57829003601f168201915b5050505050908060040154905084565b6106a483838360405180602001604052806000815250610ae6565b505050565b600061034d82610ba0565b6000600160a060020a0382166106f9576040517f89c62b6400000000000000000000000000000000000000000000000000000000815260006004820152602401610446565b50600160a060020a031660009081526003602052604090205490565b600060016006600082825461072a91906119e4565b90915550506040805160a0810182528681526020808201879052818301869052606082018590524260808301526006546000908152600790915291909120815181906107769082611a65565b506020820151600182019061078b9082611a65565b50604082015160028201906107a09082611a65565b50606082015180516107bc916003840191602090910190611349565b50608082015181600401559050506107d633600654610d05565b50600654949350505050565b60606001805461036290611991565b610419338383610d86565b61082e6040518060a0016040528060608152602001606081526020016060815260200160608152602001600081525090565b60008281526007602052604090819020815160a0810190925280548290829061085690611991565b80601f016020809104026020016040519081016040528092919081815260200182805461088290611991565b80156108cf5780601f106108a4576101008083540402835291602001916108cf565b820191906000526020600020905b8154815290600101906020018083116108b257829003601f168201915b505050505081526020016001820180546108e890611991565b80601f016020809104026020016040519081016040528092919081815260200182805461091490611991565b80156109615780601f1061093657610100808354040283529160200191610961565b820191906000526020600020905b81548152906001019060200180831161094457829003601f168201915b5050505050815260200160028201805461097a90611991565b80601f01602080910402602001604051908101604052809291908181526020018280546109a690611991565b80156109f35780601f106109c8576101008083540402835291602001916109f3565b820191906000526020600020905b8154815290600101906020018083116109d657829003601f168201915b5050505050815260200160038201805480602002602001604051908101604052809291908181526020016000905b82821015610acd578382906000526020600020018054610a4090611991565b80601f0160208091040260200160405190810160405280929190818152602001828054610a6c90611991565b8015610ab95780601f10610a8e57610100808354040283529160200191610ab9565b820191906000526020600020905b815481529060010190602001808311610a9c57829003601f168201915b505050505081526020019060010190610a21565b5050505081526020016004820154815250509050919050565b610af184848461041d565b6104c384848484610e3e565b6060610b0882610ba0565b506000610b2060408051602081019091526000815290565b90506000815111610b405760405180602001604052806000815250610b6b565b80610b4a84610f9f565b604051602001610b5b929190611b2a565b6040516020818303038152906040525b9392505050565b600160a060020a03918216600090815260056020908152604080832093909416825291909152205460ff1690565b600081815260026020526040812054600160a060020a03168061034d576040517f7e27328900000000000000000000000000000000000000000000000000000000815260048101849052602401610446565b6106a4838383600161103f565b600082815260026020526040812054600160a060020a0390811690831615610c2c57610c2c81848661116b565b600160a060020a03811615610c6a57610c4960008560008061103f565b600160a060020a038116600090815260036020526040902080546000190190555b600160a060020a03851615610c9957600160a060020a0385166000908152600360205260409020805460010190555b600084815260026020526040808220805473ffffffffffffffffffffffffffffffffffffffff1916600160a060020a0389811691821790925591518793918516917fddf252ad1be2c89b69c2b068fc378daa952ba7f163c4a11628f55a4df523b3ef91a4949350505050565b600160a060020a038216610d325760405160e160020a633250574902815260006004820152602401610446565b6000610d4083836000610bff565b9050600160a060020a038116156106a4576040517f73c6ac6e00000000000000000000000000000000000000000000000000000000815260006004820152602401610446565b600160a060020a038216610dd1576040517f5b08ba18000000000000000000000000000000000000000000000000000000008152600160a060020a0383166004820152602401610446565b600160a060020a03838116600081815260056020908152604080832094871680845294825291829020805460ff191686151590811790915591519182527f17307eab39ab6107e8899845ad3d59bd9653f200f220920489ca2b5937696c31910160405180910390a3505050565b600160a060020a0383163b156104c3576040517f150b7a02000000000000000000000000000000000000000000000000000000008152600160a060020a0384169063150b7a0290610e99903390889087908790600401611b59565b6020604051808303816000875af1925050508015610ed4575060408051601f3d908101601f19168201909252610ed191810190611b9a565b60015b610f40573d808015610f02576040519150601f19603f3d011682016040523d82523d6000602084013e610f07565b606091505b508051600003610f385760405160e160020a6332505749028152600160a060020a0385166004820152602401610446565b805181602001fd5b600160e060020a031981167f150b7a020000000000000000000000000000000000000000000000000000000014610f985760405160e160020a6332505749028152600160a060020a0385166004820152602401610446565b5050505050565b60606000610fac83611201565b600101905060008167ffffffffffffffff811115610fcc57610fcc6115a6565b6040519080825280601f01601f191660200182016040528015610ff6576020820181803683370190505b5090508181016020015b600019017f3031323334353637383961626364656600000000000000000000000000000000600a86061a8153600a850494508461100057509392505050565b80806110535750600160a060020a03821615155b1561112e57600061106384610ba0565b9050600160a060020a0383161580159061108f575082600160a060020a031681600160a060020a031614155b80156110a257506110a08184610b72565b155b156110e4576040517fa9fbf51f000000000000000000000000000000000000000000000000000000008152600160a060020a0384166004820152602401610446565b811561112c578385600160a060020a031682600160a060020a03167f8c5be1e5ebec7d5bd14f71427d1e84f3dd0314c0f7b2291e5b200ac8c7c3b92560405160405180910390a45b505b50506000908152600460205260409020805473ffffffffffffffffffffffffffffffffffffffff1916600160a060020a0392909216919091179055565b6111768383836112e3565b6106a457600160a060020a0383166111bd576040517f7e27328900000000000000000000000000000000000000000000000000000000815260048101829052602401610446565b6040517f177e802f000000000000000000000000000000000000000000000000000000008152600160a060020a038316600482015260248101829052604401610446565b6000807a184f03e93ff9f4daa797ed6e38ed64bf6a1f010000000000000000831061124a577a184f03e93ff9f4daa797ed6e38ed64bf6a1f010000000000000000830492506040015b6d04ee2d6d415b85acef81000000008310611276576d04ee2d6d415b85acef8100000000830492506020015b662386f26fc10000831061129457662386f26fc10000830492506010015b6305f5e10083106112ac576305f5e100830492506008015b61271083106112c057612710830492506004015b606483106112d2576064830492506002015b600a831061034d5760010192915050565b6000600160a060020a03831615801590611341575082600160a060020a031684600160a060020a0316148061131d575061131d8484610b72565b806113415750600082815260046020526040902054600160a060020a038481169116145b949350505050565b82805482825590600052602060002090810192821561138f579160200282015b8281111561138f578251829061137f9082611a65565b5091602001919060010190611369565b5061139b92915061139f565b5090565b8082111561139b5760006113b382826113bc565b5060010161139f565b5080546113c890611991565b6000825580601f106113d8575050565b601f0160209004906000526020600020908101906113f691906113f9565b50565b5b8082111561139b57600081556001016113fa565b600160e060020a0319811681146113f657600080fd5b60006020828403121561143657600080fd5b8135610b6b8161140e565b60005b8381101561145c578181015183820152602001611444565b50506000910152565b6000815180845261147d816020860160208601611441565b601f01601f19169290920160200192915050565b602081526000610b6b6020830184611465565b6000602082840312156114b657600080fd5b5035919050565b8035600160a060020a03811681146114d457600080fd5b919050565b600080604083850312156114ec57600080fd5b6114f5836114bd565b946020939093013593505050565b60008060006060848603121561151857600080fd5b611521846114bd565b925061152f602085016114bd565b929592945050506040919091013590565b6080815260006115536080830187611465565b82810360208401526115658187611465565b905082810360408401526115798186611465565b91505082606083015295945050505050565b60006020828403121561159d57600080fd5b610b6b826114bd565b7f4e487b7100000000000000000000000000000000000000000000000000000000600052604160045260246000fd5b604051601f8201601f1916810167ffffffffffffffff811182821017156115fe576115fe6115a6565b604052919050565b60008067ffffffffffffffff841115611621576116216115a6565b50601f8301601f1916602001611636816115d5565b91505082815283838301111561164b57600080fd5b828260208301376000602084830101529392505050565b600082601f83011261167357600080fd5b610b6b83833560208501611606565b6000806000806080858703121561169857600080fd5b843567ffffffffffffffff8111156116af57600080fd5b6116bb87828801611662565b945050602085013567ffffffffffffffff8111156116d857600080fd5b6116e487828801611662565b935050604085013567ffffffffffffffff81111561170157600080fd5b61170d87828801611662565b925050606085013567ffffffffffffffff81111561172a57600080fd5b8501601f8101871361173b57600080fd5b803567ffffffffffffffff811115611755576117556115a6565b60208102611765602082016115d5565b9182526020818401810192908101908a84111561178157600080fd5b6020850192505b838310156117c857823567ffffffffffffffff8111156117a757600080fd5b6117b68c602083890101611662565b83525060209283019290910190611788565b979a9699509497505050505050565b600080604083850312156117ea57600080fd5b6117f3836114bd565b91506020830135801515811461180857600080fd5b809150509250929050565b602081526000825160a0602084015261182f60c0840182611465565b90506020840151601f1984830301604085015261184c8282611465565b9150506040840151601f1984830301606085015261186a8282611465565b6060860151858203601f19016080870152805180835291935060209081019250808401919080820285010160005b828110156118c957601f198683030184526118b4828651611465565b60209586019594909401939150600101611898565b50608088015160a0880152809550505050505092915050565b600080600080608085870312156118f857600080fd5b611901856114bd565b935061190f602086016114bd565b925060408501359150606085013567ffffffffffffffff81111561193257600080fd5b8501601f8101871361194357600080fd5b61195287823560208401611606565b91505092959194509250565b6000806040838503121561197157600080fd5b61197a836114bd565b9150611988602084016114bd565b90509250929050565b6002810460018216806119a557607f821691505b6020821081036119de577f4e487b7100000000000000000000000000000000000000000000000000000000600052602260045260246000fd5b50919050565b8082018082111561034d577f4e487b7100000000000000000000000000000000000000000000000000000000600052601160045260246000fd5b601f8211156106a4578060005260206000206020601f85010481016020851015611a455750805b6020601f850104820191505b81811015610f985760008155600101611a51565b815167ffffffffffffffff811115611a7f57611a7f6115a6565b611a9381611a8d8454611991565b84611a1e565b6020601f821160018114611acb5760008315611aaf5750848201515b60088402600290810a6000190419821690850217855550610f98565b600084815260208120601f198516915b82811015611afb5787850151825560209485019460019092019101611adb565b5084821015611b1b5783870151601f861660080260020a60001904191681555b50505050600202600101905550565b60008351611b3c818460208801611441565b835190830190611b50818360208801611441565b01949350505050565b600160a060020a0385168152600160a060020a0384166020820152826040820152608060608201526000611b906080830184611465565b9695505050505050565b600060208284031215611bac57600080fd5b8151610b6b8161140e56fea26469706673582212207a653ca2900a3d646260edd0267a597f534357506845e8d4aea8c55b7da114fb64736f6c634300081b0033",
  "immutableReferences": {},
  "source": "// SPDX-License-Identifier: UNLICENSED\n\npragma solidity ^0.8.0;\n\nimport \"@openzeppelin/contracts/token/ERC721/ERC721.sol\";\n\ncontract SourceCodeNFT is ERC721 {\n    uint256 public currentTokenId = 0;\n\n    struct SourceCodeMetadata {\n        string name;\n        string commit;\n        string version;\n        string[] fileHashes;\n        uint256 timestamp;\n    }\n\n    mapping(uint256 => SourceCodeMetadata) public metadataMapping;\n\n    constructor() ERC721(\"SourceCodeNFT\", \"TNF\") {}\n\n    function mintSourceCodeNFT(\n        string memory name,\n        string memory commit,\n        string memory version,\n        string[] memory fileHashes\n    ) public returns (uint256) {\n        currentTokenId += 1;\n        metadataMapping[currentTokenId] = SourceCodeMetadata({\n            name: name,\n            commit: commit,\n            version: version,\n            fileHashes: fileHashes,\n            timestamp: block.timestamp\n        });\n        _mint(msg.sender, currentTokenId);\n        return currentTokenId;\n    }\n\n    function getMetadata(uint256 tokenId)\n        public\n        view\n        returns (SourceCodeMetadata memory)\n    {\n        return metadataMapping[tokenId];\n    }\n}",
  "sourcePath": "/Users/sunsuking/Developer/Projects/2024/ttalkak/server/contract-service/contracts/contracts/SourceCodeNFT.sol",
  "compiler": {
    "name": "solc",
    "version": "0.8.27+commit.40a35a09.Emscripten.clang"
  },
  "schemaVersion": "3.4.16",
  "updatedAt": "2024-09-16T02:14:52.074Z",
  "networkType": "ethereum",
  "devdoc": {
    "errors": {
      "ERC721IncorrectOwner(address,uint256,address)": [
        {
          "details": "Indicates an error related to the ownership over a particular token. Used in transfers.",
          "params": {
            "owner": "Address of the current owner of a token.",
            "sender": "Address whose tokens are being transferred.",
            "tokenId": "Identifier number of a token."
          }
        }
      ],
      "ERC721InsufficientApproval(address,uint256)": [
        {
          "details": "Indicates a failure with the `operator`s approval. Used in transfers.",
          "params": {
            "operator": "Address that may be allowed to operate on tokens without being their owner.",
            "tokenId": "Identifier number of a token."
          }
        }
      ],
      "ERC721InvalidApprover(address)": [
        {
          "details": "Indicates a failure with the `approver` of a token to be approved. Used in approvals.",
          "params": {
            "approver": "Address initiating an approval operation."
          }
        }
      ],
      "ERC721InvalidOperator(address)": [
        {
          "details": "Indicates a failure with the `operator` to be approved. Used in approvals.",
          "params": {
            "operator": "Address that may be allowed to operate on tokens without being their owner."
          }
        }
      ],
      "ERC721InvalidOwner(address)": [
        {
          "details": "Indicates that an address can't be an owner. For example, `address(0)` is a forbidden owner in EIP-20. Used in balance queries.",
          "params": {
            "owner": "Address of the current owner of a token."
          }
        }
      ],
      "ERC721InvalidReceiver(address)": [
        {
          "details": "Indicates a failure with the token `receiver`. Used in transfers.",
          "params": {
            "receiver": "Address to which tokens are being transferred."
          }
        }
      ],
      "ERC721InvalidSender(address)": [
        {
          "details": "Indicates a failure with the token `sender`. Used in transfers.",
          "params": {
            "sender": "Address whose tokens are being transferred."
          }
        }
      ],
      "ERC721NonexistentToken(uint256)": [
        {
          "details": "Indicates a `tokenId` whose `owner` is the zero address.",
          "params": {
            "tokenId": "Identifier number of a token."
          }
        }
      ]
    },
    "events": {
      "Approval(address,address,uint256)": {
        "details": "Emitted when `owner` enables `approved` to manage the `tokenId` token."
      },
      "ApprovalForAll(address,address,bool)": {
        "details": "Emitted when `owner` enables or disables (`approved`) `operator` to manage all of its assets."
      },
      "Transfer(address,address,uint256)": {
        "details": "Emitted when `tokenId` token is transferred from `from` to `to`."
      }
    },
    "kind": "dev",
    "methods": {
      "approve(address,uint256)": {
        "details": "See {IERC721-approve}."
      },
      "balanceOf(address)": {
        "details": "See {IERC721-balanceOf}."
      },
      "getApproved(uint256)": {
        "details": "See {IERC721-getApproved}."
      },
      "isApprovedForAll(address,address)": {
        "details": "See {IERC721-isApprovedForAll}."
      },
      "name()": {
        "details": "See {IERC721Metadata-name}."
      },
      "ownerOf(uint256)": {
        "details": "See {IERC721-ownerOf}."
      },
      "safeTransferFrom(address,address,uint256)": {
        "details": "See {IERC721-safeTransferFrom}."
      },
      "safeTransferFrom(address,address,uint256,bytes)": {
        "details": "See {IERC721-safeTransferFrom}."
      },
      "setApprovalForAll(address,bool)": {
        "details": "See {IERC721-setApprovalForAll}."
      },
      "supportsInterface(bytes4)": {
        "details": "See {IERC165-supportsInterface}."
      },
      "symbol()": {
        "details": "See {IERC721Metadata-symbol}."
      },
      "tokenURI(uint256)": {
        "details": "See {IERC721Metadata-tokenURI}."
      },
      "transferFrom(address,address,uint256)": {
        "details": "See {IERC721-transferFrom}."
      }
    },
    "version": 1
  },
  "userdoc": {
    "kind": "user",
    "methods": {},
    "version": 1
  }
}